No.     Time        Source                Destination           Protocol Info                                                            Length
      1 0.000000    host                  21.0                  USB      GET DESCRIPTOR Request DEVICE                                   64

Frame 1: 64 bytes on wire (512 bits), 64 bytes captured (512 bits)
    Arrival Time: May 18, 2012 21:53:11.587090000 PDT
    Epoch Time: 1337403191.587090000 seconds
    [Time delta from previous captured frame: 0.000000000 seconds]
    [Time delta from previous displayed frame: 0.000000000 seconds]
    [Time since reference or first frame: 0.000000000 seconds]
    Frame Number: 1
    Frame Length: 64 bytes (512 bits)
    Capture Length: 64 bytes (512 bits)
    [Frame is marked: True]
    [Frame is ignored: False]
    [Protocols in frame: usb]
USB URB
    URB id: 0xffff8801f1d4fa40
    URB type: URB_SUBMIT ('S')
    URB transfer type: URB_CONTROL (0x02)
    Endpoint: 0x80, Direction: IN
        1... .... = Direction: IN (1)
        .000 0000 = Endpoint value: 0
    Device: 21
    URB bus id: 2
    Device setup request: relevant (0)
    Data: not present ('<')
    URB sec: 1337403191
    URB usec: 587090
    URB status: Operation now in progress (-EINPROGRESS) (-115)
    URB length [bytes]: 40
    Data length [bytes]: 0
    [Response in: 2]
    [bInterfaceClass: HID (0x03)]
    URB setup
        bmRequestType: 0x80
            1... .... = Direction: Device-to-host
            .00. .... = Type: Standard (0x00)
            ...0 0000 = Recipient: Device (0x00)
        bRequest: GET DESCRIPTOR (6)
        Descriptor Index: 0x00
        bDescriptorType: DEVICE (1)
        Language Id: no language specified (0x0000)
        wLength: 40

0000  40 fa d4 f1 01 88 ff ff 53 02 80 15 02 00 00 3c   @.......S......<
0010  37 27 b7 4f 00 00 00 00 52 f5 08 00 8d ff ff ff   7'.O....R.......
0020  28 00 00 00 00 00 00 00 80 06 00 01 00 00 28 00   (.............(.
0030  00 00 00 00 00 00 00 00 00 02 00 00 00 00 00 00   ................

No.     Time        Source                Destination           Protocol Info                                                            Length
      2 0.002272    21.0                  host                  USB      GET DESCRIPTOR Response DEVICE                                  82

Frame 2: 82 bytes on wire (656 bits), 82 bytes captured (656 bits)
    Arrival Time: May 18, 2012 21:53:11.589362000 PDT
    Epoch Time: 1337403191.589362000 seconds
    [Time delta from previous captured frame: 0.002272000 seconds]
    [Time delta from previous displayed frame: 0.002272000 seconds]
    [Time since reference or first frame: 0.002272000 seconds]
    Frame Number: 2
    Frame Length: 82 bytes (656 bits)
    Capture Length: 82 bytes (656 bits)
    [Frame is marked: True]
    [Frame is ignored: False]
    [Protocols in frame: usb]
USB URB
    URB id: 0xffff8801f1d4fa40
    URB type: URB_COMPLETE ('C')
    URB transfer type: URB_CONTROL (0x02)
    Endpoint: 0x80, Direction: IN
        1... .... = Direction: IN (1)
        .000 0000 = Endpoint value: 0
    Device: 21
    URB bus id: 2
    Device setup request: not relevant ('-')
    Data: present (0)
    URB sec: 1337403191
    URB usec: 589362
    URB status: Success (0)
    URB length [bytes]: 18
    Data length [bytes]: 18
    [Request in: 1]
    [Time from request: 0.002272000 seconds]
    [bInterfaceClass: HID (0x03)]
    DEVICE DESCRIPTOR
        bLength: 18
        bDescriptorType: DEVICE (1)
        bcdUSB: 0x0200
        bDeviceClass: 0
        bDeviceSubClass: 0
        bDeviceProtocol: 0
        bMaxPacketSize0: 8
        idVendor: 0x1f54
        idProduct: 0x0001
        bcdDevice: 0x0002
        iManufacturer: 1
        iProduct: 2
        iSerialNumber: 0
        bNumConfigurations: 1

0000  40 fa d4 f1 01 88 ff ff 43 02 80 15 02 00 2d 00   @.......C.....-.
0010  37 27 b7 4f 00 00 00 00 32 fe 08 00 00 00 00 00   7'.O....2.......
0020  12 00 00 00 12 00 00 00 00 00 00 00 00 00 00 00   ................
0030  00 00 00 00 00 00 00 00 00 02 00 00 00 00 00 00   ................
0040  12 01 00 02 00 00 00 08 54 1f 01 00 02 00 01 02   ........T.......
0050  00 01                                             ..

No.     Time        Source                Destination           Protocol Info                                                            Length
      3 0.433501    host                  21.0                  USB      GET DESCRIPTOR Request DEVICE                                   64

Frame 3: 64 bytes on wire (512 bits), 64 bytes captured (512 bits)
    Arrival Time: May 18, 2012 21:53:12.020591000 PDT
    Epoch Time: 1337403192.020591000 seconds
    [Time delta from previous captured frame: 0.431229000 seconds]
    [Time delta from previous displayed frame: 0.431229000 seconds]
    [Time since reference or first frame: 0.433501000 seconds]
    Frame Number: 3
    Frame Length: 64 bytes (512 bits)
    Capture Length: 64 bytes (512 bits)
    [Frame is marked: True]
    [Frame is ignored: False]
    [Protocols in frame: usb]
USB URB
    URB id: 0xffff88020d6d8000
    URB type: URB_SUBMIT ('S')
    URB transfer type: URB_CONTROL (0x02)
    Endpoint: 0x80, Direction: IN
        1... .... = Direction: IN (1)
        .000 0000 = Endpoint value: 0
    Device: 21
    URB bus id: 2
    Device setup request: relevant (0)
    Data: not present ('<')
    URB sec: 1337403192
    URB usec: 20591
    URB status: Operation now in progress (-EINPROGRESS) (-115)
    URB length [bytes]: 40
    Data length [bytes]: 0
    [Response in: 4]
    [bInterfaceClass: HID (0x03)]
    URB setup
        bmRequestType: 0x80
            1... .... = Direction: Device-to-host
            .00. .... = Type: Standard (0x00)
            ...0 0000 = Recipient: Device (0x00)
        bRequest: GET DESCRIPTOR (6)
        Descriptor Index: 0x00
        bDescriptorType: DEVICE (1)
        Language Id: no language specified (0x0000)
        wLength: 40

0000  00 80 6d 0d 02 88 ff ff 53 02 80 15 02 00 00 3c   ..m.....S......<
0010  38 27 b7 4f 00 00 00 00 6f 50 00 00 8d ff ff ff   8'.O....oP......
0020  28 00 00 00 00 00 00 00 80 06 00 01 00 00 28 00   (.............(.
0030  00 00 00 00 00 00 00 00 00 02 00 00 00 00 00 00   ................

No.     Time        Source                Destination           Protocol Info                                                            Length
      4 0.434057    21.0                  host                  USB      GET DESCRIPTOR Response DEVICE                                  82

Frame 4: 82 bytes on wire (656 bits), 82 bytes captured (656 bits)
    Arrival Time: May 18, 2012 21:53:12.021147000 PDT
    Epoch Time: 1337403192.021147000 seconds
    [Time delta from previous captured frame: 0.000556000 seconds]
    [Time delta from previous displayed frame: 0.000556000 seconds]
    [Time since reference or first frame: 0.434057000 seconds]
    Frame Number: 4
    Frame Length: 82 bytes (656 bits)
    Capture Length: 82 bytes (656 bits)
    [Frame is marked: True]
    [Frame is ignored: False]
    [Protocols in frame: usb]
USB URB
    URB id: 0xffff88020d6d8000
    URB type: URB_COMPLETE ('C')
    URB transfer type: URB_CONTROL (0x02)
    Endpoint: 0x80, Direction: IN
        1... .... = Direction: IN (1)
        .000 0000 = Endpoint value: 0
    Device: 21
    URB bus id: 2
    Device setup request: not relevant ('-')
    Data: present (0)
    URB sec: 1337403192
    URB usec: 21147
    URB status: Success (0)
    URB length [bytes]: 18
    Data length [bytes]: 18
    [Request in: 3]
    [Time from request: 0.000556000 seconds]
    [bInterfaceClass: HID (0x03)]
    DEVICE DESCRIPTOR
        bLength: 18
        bDescriptorType: DEVICE (1)
        bcdUSB: 0x0200
        bDeviceClass: 0
        bDeviceSubClass: 0
        bDeviceProtocol: 0
        bMaxPacketSize0: 8
        idVendor: 0x1f54
        idProduct: 0x0001
        bcdDevice: 0x0002
        iManufacturer: 1
        iProduct: 2
        iSerialNumber: 0
        bNumConfigurations: 1

0000  00 80 6d 0d 02 88 ff ff 43 02 80 15 02 00 2d 00   ..m.....C.....-.
0010  38 27 b7 4f 00 00 00 00 9b 52 00 00 00 00 00 00   8'.O.....R......
0020  12 00 00 00 12 00 00 00 00 00 00 00 00 00 00 00   ................
0030  00 00 00 00 00 00 00 00 00 02 00 00 00 00 00 00   ................
0040  12 01 00 02 00 00 00 08 54 1f 01 00 02 00 01 02   ........T.......
0050  00 01                                             ..

No.     Time        Source                Destination           Protocol Info                                                            Length
      5 38.637955   host                  21.0                  USB      GET DESCRIPTOR Request DEVICE                                   64

Frame 5: 64 bytes on wire (512 bits), 64 bytes captured (512 bits)
    Arrival Time: May 18, 2012 21:53:50.225045000 PDT
    Epoch Time: 1337403230.225045000 seconds
    [Time delta from previous captured frame: 38.203898000 seconds]
    [Time delta from previous displayed frame: 38.203898000 seconds]
    [Time since reference or first frame: 38.637955000 seconds]
    Frame Number: 5
    Frame Length: 64 bytes (512 bits)
    Capture Length: 64 bytes (512 bits)
    [Frame is marked: True]
    [Frame is ignored: False]
    [Protocols in frame: usb]
USB URB
    URB id: 0xffff88020d5ca780
    URB type: URB_SUBMIT ('S')
    URB transfer type: URB_CONTROL (0x02)
    Endpoint: 0x80, Direction: IN
        1... .... = Direction: IN (1)
        .000 0000 = Endpoint value: 0
    Device: 21
    URB bus id: 2
    Device setup request: relevant (0)
    Data: not present ('<')
    URB sec: 1337403230
    URB usec: 225045
    URB status: Operation now in progress (-EINPROGRESS) (-115)
    URB length [bytes]: 18
    Data length [bytes]: 0
    [Response in: 6]
    [bInterfaceClass: HID (0x03)]
    URB setup
        bmRequestType: 0x80
            1... .... = Direction: Device-to-host
            .00. .... = Type: Standard (0x00)
            ...0 0000 = Recipient: Device (0x00)
        bRequest: GET DESCRIPTOR (6)
        Descriptor Index: 0x00
        bDescriptorType: DEVICE (1)
        Language Id: no language specified (0x0000)
        wLength: 18

0000  80 a7 5c 0d 02 88 ff ff 53 02 80 15 02 00 00 3c   ..\.....S......<
0010  5e 27 b7 4f 00 00 00 00 15 6f 03 00 8d ff ff ff   ^'.O.....o......
0020  12 00 00 00 00 00 00 00 80 06 00 01 00 00 12 00   ................
0030  00 00 00 00 00 00 00 00 00 02 00 00 00 00 00 00   ................

No.     Time        Source                Destination           Protocol Info                                                            Length
      6 38.638319   21.0                  host                  USB      GET DESCRIPTOR Response DEVICE                                  82

Frame 6: 82 bytes on wire (656 bits), 82 bytes captured (656 bits)
    Arrival Time: May 18, 2012 21:53:50.225409000 PDT
    Epoch Time: 1337403230.225409000 seconds
    [Time delta from previous captured frame: 0.000364000 seconds]
    [Time delta from previous displayed frame: 0.000364000 seconds]
    [Time since reference or first frame: 38.638319000 seconds]
    Frame Number: 6
    Frame Length: 82 bytes (656 bits)
    Capture Length: 82 bytes (656 bits)
    [Frame is marked: True]
    [Frame is ignored: False]
    [Protocols in frame: usb]
USB URB
    URB id: 0xffff88020d5ca780
    URB type: URB_COMPLETE ('C')
    URB transfer type: URB_CONTROL (0x02)
    Endpoint: 0x80, Direction: IN
        1... .... = Direction: IN (1)
        .000 0000 = Endpoint value: 0
    Device: 21
    URB bus id: 2
    Device setup request: not relevant ('-')
    Data: present (0)
    URB sec: 1337403230
    URB usec: 225409
    URB status: Success (0)
    URB length [bytes]: 18
    Data length [bytes]: 18
    [Request in: 5]
    [Time from request: 0.000364000 seconds]
    [bInterfaceClass: HID (0x03)]
    DEVICE DESCRIPTOR
        bLength: 18
        bDescriptorType: DEVICE (1)
        bcdUSB: 0x0200
        bDeviceClass: 0
        bDeviceSubClass: 0
        bDeviceProtocol: 0
        bMaxPacketSize0: 8
        idVendor: 0x1f54
        idProduct: 0x0001
        bcdDevice: 0x0002
        iManufacturer: 1
        iProduct: 2
        iSerialNumber: 0
        bNumConfigurations: 1

0000  80 a7 5c 0d 02 88 ff ff 43 02 80 15 02 00 2d 00   ..\.....C.....-.
0010  5e 27 b7 4f 00 00 00 00 81 70 03 00 00 00 00 00   ^'.O.....p......
0020  12 00 00 00 12 00 00 00 00 00 00 00 00 00 00 00   ................
0030  00 00 00 00 00 00 00 00 00 02 00 00 00 00 00 00   ................
0040  12 01 00 02 00 00 00 08 54 1f 01 00 02 00 01 02   ........T.......
0050  00 01                                             ..

No.     Time        Source                Destination           Protocol Info                                                            Length
      7 38.638366   host                  21.0                  USB      GET DESCRIPTOR Request CONFIGURATION                            64

Frame 7: 64 bytes on wire (512 bits), 64 bytes captured (512 bits)
    Arrival Time: May 18, 2012 21:53:50.225456000 PDT
    Epoch Time: 1337403230.225456000 seconds
    [Time delta from previous captured frame: 0.000047000 seconds]
    [Time delta from previous displayed frame: 0.000047000 seconds]
    [Time since reference or first frame: 38.638366000 seconds]
    Frame Number: 7
    Frame Length: 64 bytes (512 bits)
    Capture Length: 64 bytes (512 bits)
    [Frame is marked: True]
    [Frame is ignored: False]
    [Protocols in frame: usb]
USB URB
    URB id: 0xffff88020d5ca780
    URB type: URB_SUBMIT ('S')
    URB transfer type: URB_CONTROL (0x02)
    Endpoint: 0x80, Direction: IN
        1... .... = Direction: IN (1)
        .000 0000 = Endpoint value: 0
    Device: 21
    URB bus id: 2
    Device setup request: relevant (0)
    Data: not present ('<')
    URB sec: 1337403230
    URB usec: 225456
    URB status: Operation now in progress (-EINPROGRESS) (-115)
    URB length [bytes]: 9
    Data length [bytes]: 0
    [Response in: 8]
    [bInterfaceClass: HID (0x03)]
    URB setup
        bmRequestType: 0x80
            1... .... = Direction: Device-to-host
            .00. .... = Type: Standard (0x00)
            ...0 0000 = Recipient: Device (0x00)
        bRequest: GET DESCRIPTOR (6)
        Descriptor Index: 0x00
        bDescriptorType: CONFIGURATION (2)
        Language Id: no language specified (0x0000)
        wLength: 9

0000  80 a7 5c 0d 02 88 ff ff 53 02 80 15 02 00 00 3c   ..\.....S......<
0010  5e 27 b7 4f 00 00 00 00 b0 70 03 00 8d ff ff ff   ^'.O.....p......
0020  09 00 00 00 00 00 00 00 80 06 00 02 00 00 09 00   ................
0030  00 00 00 00 00 00 00 00 00 02 00 00 00 00 00 00   ................

No.     Time        Source                Destination           Protocol Info                                                            Length
      8 38.638832   21.0                  host                  USB      GET DESCRIPTOR Response CONFIGURATION                           73

Frame 8: 73 bytes on wire (584 bits), 73 bytes captured (584 bits)
    Arrival Time: May 18, 2012 21:53:50.225922000 PDT
    Epoch Time: 1337403230.225922000 seconds
    [Time delta from previous captured frame: 0.000466000 seconds]
    [Time delta from previous displayed frame: 0.000466000 seconds]
    [Time since reference or first frame: 38.638832000 seconds]
    Frame Number: 8
    Frame Length: 73 bytes (584 bits)
    Capture Length: 73 bytes (584 bits)
    [Frame is marked: True]
    [Frame is ignored: False]
    [Protocols in frame: usb]
USB URB
    URB id: 0xffff88020d5ca780
    URB type: URB_COMPLETE ('C')
    URB transfer type: URB_CONTROL (0x02)
    Endpoint: 0x80, Direction: IN
        1... .... = Direction: IN (1)
        .000 0000 = Endpoint value: 0
    Device: 21
    URB bus id: 2
    Device setup request: not relevant ('-')
    Data: present (0)
    URB sec: 1337403230
    URB usec: 225922
    URB status: Success (0)
    URB length [bytes]: 9
    Data length [bytes]: 9
    [Request in: 7]
    [Time from request: 0.000466000 seconds]
    [bInterfaceClass: HID (0x03)]
    CONFIGURATION DESCRIPTOR
        bLength: 9
        bDescriptorType: CONFIGURATION (2)
        wTotalLength: 41
        bNumInterfaces: 1
        bConfigurationValue: 1
        iConfiguration: 0
        Configuration bmAttributes: 0xc0  SELF-POWERED  NO REMOTE-WAKEUP
            1... .... = Must be 1: Must be 1 for USB 1.1 and higher
            .1.. .... = Self-Powered: This device is SELF-POWERED
            ..0. .... = Remote Wakeup: This device does NOT support remote wakeup
        bMaxPower: 50  (100mA)

0000  80 a7 5c 0d 02 88 ff ff 43 02 80 15 02 00 2d 00   ..\.....C.....-.
0010  5e 27 b7 4f 00 00 00 00 82 72 03 00 00 00 00 00   ^'.O.....r......
0020  09 00 00 00 09 00 00 00 00 00 00 00 00 00 00 00   ................
0030  00 00 00 00 00 00 00 00 00 02 00 00 00 00 00 00   ................
0040  09 02 29 00 01 01 00 c0 32                        ..).....2

No.     Time        Source                Destination           Protocol Info                                                            Length
      9 38.638872   host                  21.0                  USB      GET DESCRIPTOR Request CONFIGURATION                            64

Frame 9: 64 bytes on wire (512 bits), 64 bytes captured (512 bits)
    Arrival Time: May 18, 2012 21:53:50.225962000 PDT
    Epoch Time: 1337403230.225962000 seconds
    [Time delta from previous captured frame: 0.000040000 seconds]
    [Time delta from previous displayed frame: 0.000040000 seconds]
    [Time since reference or first frame: 38.638872000 seconds]
    Frame Number: 9
    Frame Length: 64 bytes (512 bits)
    Capture Length: 64 bytes (512 bits)
    [Frame is marked: True]
    [Frame is ignored: False]
    [Protocols in frame: usb]
USB URB
    URB id: 0xffff88020d5ca780
    URB type: URB_SUBMIT ('S')
    URB transfer type: URB_CONTROL (0x02)
    Endpoint: 0x80, Direction: IN
        1... .... = Direction: IN (1)
        .000 0000 = Endpoint value: 0
    Device: 21
    URB bus id: 2
    Device setup request: relevant (0)
    Data: not present ('<')
    URB sec: 1337403230
    URB usec: 225962
    URB status: Operation now in progress (-EINPROGRESS) (-115)
    URB length [bytes]: 41
    Data length [bytes]: 0
    [Response in: 10]
    [bInterfaceClass: HID (0x03)]
    URB setup
        bmRequestType: 0x80
            1... .... = Direction: Device-to-host
            .00. .... = Type: Standard (0x00)
            ...0 0000 = Recipient: Device (0x00)
        bRequest: GET DESCRIPTOR (6)
        Descriptor Index: 0x00
        bDescriptorType: CONFIGURATION (2)
        Language Id: no language specified (0x0000)
        wLength: 41

0000  80 a7 5c 0d 02 88 ff ff 53 02 80 15 02 00 00 3c   ..\.....S......<
0010  5e 27 b7 4f 00 00 00 00 aa 72 03 00 8d ff ff ff   ^'.O.....r......
0020  29 00 00 00 00 00 00 00 80 06 00 02 00 00 29 00   ).............).
0030  00 00 00 00 00 00 00 00 00 02 00 00 00 00 00 00   ................

No.     Time        Source                Destination           Protocol Info                                                            Length
     10 38.639461   21.0                  host                  USB      GET DESCRIPTOR Response CONFIGURATION                           105

Frame 10: 105 bytes on wire (840 bits), 105 bytes captured (840 bits)
    Arrival Time: May 18, 2012 21:53:50.226551000 PDT
    Epoch Time: 1337403230.226551000 seconds
    [Time delta from previous captured frame: 0.000589000 seconds]
    [Time delta from previous displayed frame: 0.000589000 seconds]
    [Time since reference or first frame: 38.639461000 seconds]
    Frame Number: 10
    Frame Length: 105 bytes (840 bits)
    Capture Length: 105 bytes (840 bits)
    [Frame is marked: True]
    [Frame is ignored: False]
    [Protocols in frame: usb]
USB URB
    URB id: 0xffff88020d5ca780
    URB type: URB_COMPLETE ('C')
    URB transfer type: URB_CONTROL (0x02)
    Endpoint: 0x80, Direction: IN
        1... .... = Direction: IN (1)
        .000 0000 = Endpoint value: 0
    Device: 21
    URB bus id: 2
    Device setup request: not relevant ('-')
    Data: present (0)
    URB sec: 1337403230
    URB usec: 226551
    URB status: Success (0)
    URB length [bytes]: 41
    Data length [bytes]: 41
    [Request in: 9]
    [Time from request: 0.000589000 seconds]
    [bInterfaceClass: HID (0x03)]
    CONFIGURATION DESCRIPTOR
        bLength: 9
        bDescriptorType: CONFIGURATION (2)
        wTotalLength: 41
        bNumInterfaces: 1
        bConfigurationValue: 1
        iConfiguration: 0
        Configuration bmAttributes: 0xc0  SELF-POWERED  NO REMOTE-WAKEUP
            1... .... = Must be 1: Must be 1 for USB 1.1 and higher
            .1.. .... = Self-Powered: This device is SELF-POWERED
            ..0. .... = Remote Wakeup: This device does NOT support remote wakeup
        bMaxPower: 50  (100mA)
    INTERFACE DESCRIPTOR
        bLength: 9
        bDescriptorType: INTERFACE (4)
        bInterfaceNumber: 0
        bAlternateSetting: 0
        bNumEndpoints: 2
        bInterfaceClass: HID (0x03)
        bInterfaceSubClass: 0x00
        bInterfaceProtocol: 0x00
        iInterface: 0
    UNKNOWN DESCRIPTOR
        bLength: 9
        bDescriptorType: HID (33)
    ENDPOINT DESCRIPTOR
        bLength: 7
        bDescriptorType: ENDPOINT (5)
        bEndpointAddress: 0x81  IN  Endpoint:1
            1... .... = Direction: IN Endpoint
            .... 0001 = Endpoint Number: 0x01
        bmAttributes: 0x03
            .... ..11 = Transfertype: Interrupt-Transfer (0x03)
            .... 00.. = Synchronisationtype: No Sync (0x00)
            ..00 .... = Behaviourtype: Data-Endpoint (0x00)
        wMaxPacketSize: 64
        bInterval: 1
    ENDPOINT DESCRIPTOR
        bLength: 7
        bDescriptorType: ENDPOINT (5)
        bEndpointAddress: 0x01  OUT  Endpoint:1
            0... .... = Direction: OUT Endpoint
            .... 0001 = Endpoint Number: 0x01
        bmAttributes: 0x03
            .... ..11 = Transfertype: Interrupt-Transfer (0x03)
            .... 00.. = Synchronisationtype: No Sync (0x00)
            ..00 .... = Behaviourtype: Data-Endpoint (0x00)
        wMaxPacketSize: 64
        bInterval: 1

0000  80 a7 5c 0d 02 88 ff ff 43 02 80 15 02 00 2d 00   ..\.....C.....-.
0010  5e 27 b7 4f 00 00 00 00 f7 74 03 00 00 00 00 00   ^'.O.....t......
0020  29 00 00 00 29 00 00 00 00 00 00 00 00 00 00 00   )...)...........
0030  00 00 00 00 00 00 00 00 00 02 00 00 00 00 00 00   ................
0040  09 02 29 00 01 01 00 c0 32 09 04 00 00 02 03 00   ..).....2.......
0050  00 00 09 21 11 01 00 01 22 1d 00 07 05 81 03 40   ...!...."......@
0060  00 01 07 05 01 03 40 00 01                        ......@..

No.     Time        Source                Destination           Protocol Info                                                            Length
     11 38.815958   host                  21.0                  USB      GET DESCRIPTOR Request DEVICE                                   64

Frame 11: 64 bytes on wire (512 bits), 64 bytes captured (512 bits)
    Arrival Time: May 18, 2012 21:53:50.403048000 PDT
    Epoch Time: 1337403230.403048000 seconds
    [Time delta from previous captured frame: 0.176497000 seconds]
    [Time delta from previous displayed frame: 0.176497000 seconds]
    [Time since reference or first frame: 38.815958000 seconds]
    Frame Number: 11
    Frame Length: 64 bytes (512 bits)
    Capture Length: 64 bytes (512 bits)
    [Frame is marked: True]
    [Frame is ignored: False]
    [Protocols in frame: usb]
USB URB
    URB id: 0xffff8801b6899bc0
    URB type: URB_SUBMIT ('S')
    URB transfer type: URB_CONTROL (0x02)
    Endpoint: 0x80, Direction: IN
        1... .... = Direction: IN (1)
        .000 0000 = Endpoint value: 0
    Device: 21
    URB bus id: 2
    Device setup request: relevant (0)
    Data: not present ('<')
    URB sec: 1337403230
    URB usec: 403048
    URB status: Operation now in progress (-EINPROGRESS) (-115)
    URB length [bytes]: 64
    Data length [bytes]: 0
    [Response in: 12]
    [bInterfaceClass: HID (0x03)]
    URB setup
        bmRequestType: 0x80
            1... .... = Direction: Device-to-host
            .00. .... = Type: Standard (0x00)
            ...0 0000 = Recipient: Device (0x00)
        bRequest: GET DESCRIPTOR (6)
        Descriptor Index: 0x00
        bDescriptorType: DEVICE (1)
        Language Id: no language specified (0x0000)
        wLength: 64

0000  c0 9b 89 b6 01 88 ff ff 53 02 80 15 02 00 00 3c   ........S......<
0010  5e 27 b7 4f 00 00 00 00 68 26 06 00 8d ff ff ff   ^'.O....h&......
0020  40 00 00 00 00 00 00 00 80 06 00 01 00 00 40 00   @.............@.
0030  00 00 00 00 00 00 00 00 00 02 00 00 00 00 00 00   ................

No.     Time        Source                Destination           Protocol Info                                                            Length
     12 38.816320   21.0                  host                  USB      GET DESCRIPTOR Response DEVICE                                  82

Frame 12: 82 bytes on wire (656 bits), 82 bytes captured (656 bits)
    Arrival Time: May 18, 2012 21:53:50.403410000 PDT
    Epoch Time: 1337403230.403410000 seconds
    [Time delta from previous captured frame: 0.000362000 seconds]
    [Time delta from previous displayed frame: 0.000362000 seconds]
    [Time since reference or first frame: 38.816320000 seconds]
    Frame Number: 12
    Frame Length: 82 bytes (656 bits)
    Capture Length: 82 bytes (656 bits)
    [Frame is marked: True]
    [Frame is ignored: False]
    [Protocols in frame: usb]
USB URB
    URB id: 0xffff8801b6899bc0
    URB type: URB_COMPLETE ('C')
    URB transfer type: URB_CONTROL (0x02)
    Endpoint: 0x80, Direction: IN
        1... .... = Direction: IN (1)
        .000 0000 = Endpoint value: 0
    Device: 21
    URB bus id: 2
    Device setup request: not relevant ('-')
    Data: present (0)
    URB sec: 1337403230
    URB usec: 403410
    URB status: Success (0)
    URB length [bytes]: 18
    Data length [bytes]: 18
    [Request in: 11]
    [Time from request: 0.000362000 seconds]
    [bInterfaceClass: HID (0x03)]
    DEVICE DESCRIPTOR
        bLength: 18
        bDescriptorType: DEVICE (1)
        bcdUSB: 0x0200
        bDeviceClass: 0
        bDeviceSubClass: 0
        bDeviceProtocol: 0
        bMaxPacketSize0: 8
        idVendor: 0x1f54
        idProduct: 0x0001
        bcdDevice: 0x0002
        iManufacturer: 1
        iProduct: 2
        iSerialNumber: 0
        bNumConfigurations: 1

0000  c0 9b 89 b6 01 88 ff ff 43 02 80 15 02 00 2d 00   ........C.....-.
0010  5e 27 b7 4f 00 00 00 00 d2 27 06 00 00 00 00 00   ^'.O.....'......
0020  12 00 00 00 12 00 00 00 00 00 00 00 00 00 00 00   ................
0030  00 00 00 00 00 00 00 00 00 02 00 00 00 00 00 00   ................
0040  12 01 00 02 00 00 00 08 54 1f 01 00 02 00 01 02   ........T.......
0050  00 01                                             ..

No.     Time        Source                Destination           Protocol Info                                                            Length
     13 38.907267   host                  21.0                  USB      GET DESCRIPTOR Request DEVICE                                   64

Frame 13: 64 bytes on wire (512 bits), 64 bytes captured (512 bits)
    Arrival Time: May 18, 2012 21:53:50.494357000 PDT
    Epoch Time: 1337403230.494357000 seconds
    [Time delta from previous captured frame: 0.090947000 seconds]
    [Time delta from previous displayed frame: 0.090947000 seconds]
    [Time since reference or first frame: 38.907267000 seconds]
    Frame Number: 13
    Frame Length: 64 bytes (512 bits)
    Capture Length: 64 bytes (512 bits)
    [Frame is marked: True]
    [Frame is ignored: False]
    [Protocols in frame: usb]
USB URB
    URB id: 0xffff880139172540
    URB type: URB_SUBMIT ('S')
    URB transfer type: URB_CONTROL (0x02)
    Endpoint: 0x80, Direction: IN
        1... .... = Direction: IN (1)
        .000 0000 = Endpoint value: 0
    Device: 21
    URB bus id: 2
    Device setup request: relevant (0)
    Data: not present ('<')
    URB sec: 1337403230
    URB usec: 494357
    URB status: Operation now in progress (-EINPROGRESS) (-115)
    URB length [bytes]: 18
    Data length [bytes]: 0
    [Response in: 14]
    [bInterfaceClass: HID (0x03)]
    URB setup
        bmRequestType: 0x80
            1... .... = Direction: Device-to-host
            .00. .... = Type: Standard (0x00)
            ...0 0000 = Recipient: Device (0x00)
        bRequest: GET DESCRIPTOR (6)
        Descriptor Index: 0x00
        bDescriptorType: DEVICE (1)
        Language Id: no language specified (0x0000)
        wLength: 18

0000  40 25 17 39 01 88 ff ff 53 02 80 15 02 00 00 3c   @%.9....S......<
0010  5e 27 b7 4f 00 00 00 00 15 8b 07 00 8d ff ff ff   ^'.O............
0020  12 00 00 00 00 00 00 00 80 06 00 01 00 00 12 00   ................
0030  00 00 00 00 00 00 00 00 00 02 00 00 00 00 00 00   ................

No.     Time        Source                Destination           Protocol Info                                                            Length
     14 38.907829   21.0                  host                  USB      GET DESCRIPTOR Response DEVICE                                  82

Frame 14: 82 bytes on wire (656 bits), 82 bytes captured (656 bits)
    Arrival Time: May 18, 2012 21:53:50.494919000 PDT
    Epoch Time: 1337403230.494919000 seconds
    [Time delta from previous captured frame: 0.000562000 seconds]
    [Time delta from previous displayed frame: 0.000562000 seconds]
    [Time since reference or first frame: 38.907829000 seconds]
    Frame Number: 14
    Frame Length: 82 bytes (656 bits)
    Capture Length: 82 bytes (656 bits)
    [Frame is marked: True]
    [Frame is ignored: False]
    [Protocols in frame: usb]
USB URB
    URB id: 0xffff880139172540
    URB type: URB_COMPLETE ('C')
    URB transfer type: URB_CONTROL (0x02)
    Endpoint: 0x80, Direction: IN
        1... .... = Direction: IN (1)
        .000 0000 = Endpoint value: 0
    Device: 21
    URB bus id: 2
    Device setup request: not relevant ('-')
    Data: present (0)
    URB sec: 1337403230
    URB usec: 494919
    URB status: Success (0)
    URB length [bytes]: 18
    Data length [bytes]: 18
    [Request in: 13]
    [Time from request: 0.000562000 seconds]
    [bInterfaceClass: HID (0x03)]
    DEVICE DESCRIPTOR
        bLength: 18
        bDescriptorType: DEVICE (1)
        bcdUSB: 0x0200
        bDeviceClass: 0
        bDeviceSubClass: 0
        bDeviceProtocol: 0
        bMaxPacketSize0: 8
        idVendor: 0x1f54
        idProduct: 0x0001
        bcdDevice: 0x0002
        iManufacturer: 1
        iProduct: 2
        iSerialNumber: 0
        bNumConfigurations: 1

0000  40 25 17 39 01 88 ff ff 43 02 80 15 02 00 2d 00   @%.9....C.....-.
0010  5e 27 b7 4f 00 00 00 00 47 8d 07 00 00 00 00 00   ^'.O....G.......
0020  12 00 00 00 12 00 00 00 00 00 00 00 00 00 00 00   ................
0030  00 00 00 00 00 00 00 00 00 02 00 00 00 00 00 00   ................
0040  12 01 00 02 00 00 00 08 54 1f 01 00 02 00 01 02   ........T.......
0050  00 01                                             ..

No.     Time        Source                Destination           Protocol Info                                                            Length
     15 38.909112   host                  21.0                  USB      GET DESCRIPTOR Request CONFIGURATION                            64

Frame 15: 64 bytes on wire (512 bits), 64 bytes captured (512 bits)
    Arrival Time: May 18, 2012 21:53:50.496202000 PDT
    Epoch Time: 1337403230.496202000 seconds
    [Time delta from previous captured frame: 0.001283000 seconds]
    [Time delta from previous displayed frame: 0.001283000 seconds]
    [Time since reference or first frame: 38.909112000 seconds]
    Frame Number: 15
    Frame Length: 64 bytes (512 bits)
    Capture Length: 64 bytes (512 bits)
    [Frame is marked: True]
    [Frame is ignored: False]
    [Protocols in frame: usb]
USB URB
    URB id: 0xffff880139172540
    URB type: URB_SUBMIT ('S')
    URB transfer type: URB_CONTROL (0x02)
    Endpoint: 0x80, Direction: IN
        1... .... = Direction: IN (1)
        .000 0000 = Endpoint value: 0
    Device: 21
    URB bus id: 2
    Device setup request: relevant (0)
    Data: not present ('<')
    URB sec: 1337403230
    URB usec: 496202
    URB status: Operation now in progress (-EINPROGRESS) (-115)
    URB length [bytes]: 9
    Data length [bytes]: 0
    [Response in: 16]
    [bInterfaceClass: HID (0x03)]
    URB setup
        bmRequestType: 0x80
            1... .... = Direction: Device-to-host
            .00. .... = Type: Standard (0x00)
            ...0 0000 = Recipient: Device (0x00)
        bRequest: GET DESCRIPTOR (6)
        Descriptor Index: 0x00
        bDescriptorType: CONFIGURATION (2)
        Language Id: no language specified (0x0000)
        wLength: 9

0000  40 25 17 39 01 88 ff ff 53 02 80 15 02 00 00 3c   @%.9....S......<
0010  5e 27 b7 4f 00 00 00 00 4a 92 07 00 8d ff ff ff   ^'.O....J.......
0020  09 00 00 00 00 00 00 00 80 06 00 02 00 00 09 00   ................
0030  00 00 00 00 00 00 00 00 00 02 00 00 00 00 00 00   ................

No.     Time        Source                Destination           Protocol Info                                                            Length
     16 38.909463   21.0                  host                  USB      GET DESCRIPTOR Response CONFIGURATION                           73

Frame 16: 73 bytes on wire (584 bits), 73 bytes captured (584 bits)
    Arrival Time: May 18, 2012 21:53:50.496553000 PDT
    Epoch Time: 1337403230.496553000 seconds
    [Time delta from previous captured frame: 0.000351000 seconds]
    [Time delta from previous displayed frame: 0.000351000 seconds]
    [Time since reference or first frame: 38.909463000 seconds]
    Frame Number: 16
    Frame Length: 73 bytes (584 bits)
    Capture Length: 73 bytes (584 bits)
    [Frame is marked: True]
    [Frame is ignored: False]
    [Protocols in frame: usb]
USB URB
    URB id: 0xffff880139172540
    URB type: URB_COMPLETE ('C')
    URB transfer type: URB_CONTROL (0x02)
    Endpoint: 0x80, Direction: IN
        1... .... = Direction: IN (1)
        .000 0000 = Endpoint value: 0
    Device: 21
    URB bus id: 2
    Device setup request: not relevant ('-')
    Data: present (0)
    URB sec: 1337403230
    URB usec: 496553
    URB status: Success (0)
    URB length [bytes]: 9
    Data length [bytes]: 9
    [Request in: 15]
    [Time from request: 0.000351000 seconds]
    [bInterfaceClass: HID (0x03)]
    CONFIGURATION DESCRIPTOR
        bLength: 9
        bDescriptorType: CONFIGURATION (2)
        wTotalLength: 41
        bNumInterfaces: 1
        bConfigurationValue: 1
        iConfiguration: 0
        Configuration bmAttributes: 0xc0  SELF-POWERED  NO REMOTE-WAKEUP
            1... .... = Must be 1: Must be 1 for USB 1.1 and higher
            .1.. .... = Self-Powered: This device is SELF-POWERED
            ..0. .... = Remote Wakeup: This device does NOT support remote wakeup
        bMaxPower: 50  (100mA)

0000  40 25 17 39 01 88 ff ff 43 02 80 15 02 00 2d 00   @%.9....C.....-.
0010  5e 27 b7 4f 00 00 00 00 a9 93 07 00 00 00 00 00   ^'.O............
0020  09 00 00 00 09 00 00 00 00 00 00 00 00 00 00 00   ................
0030  00 00 00 00 00 00 00 00 00 02 00 00 00 00 00 00   ................
0040  09 02 29 00 01 01 00 c0 32                        ..).....2

No.     Time        Source                Destination           Protocol Info                                                            Length
     17 38.910829   host                  21.0                  USB      GET DESCRIPTOR Request CONFIGURATION                            64

Frame 17: 64 bytes on wire (512 bits), 64 bytes captured (512 bits)
    Arrival Time: May 18, 2012 21:53:50.497919000 PDT
    Epoch Time: 1337403230.497919000 seconds
    [Time delta from previous captured frame: 0.001366000 seconds]
    [Time delta from previous displayed frame: 0.001366000 seconds]
    [Time since reference or first frame: 38.910829000 seconds]
    Frame Number: 17
    Frame Length: 64 bytes (512 bits)
    Capture Length: 64 bytes (512 bits)
    [Frame is marked: True]
    [Frame is ignored: False]
    [Protocols in frame: usb]
USB URB
    URB id: 0xffff880139172540
    URB type: URB_SUBMIT ('S')
    URB transfer type: URB_CONTROL (0x02)
    Endpoint: 0x80, Direction: IN
        1... .... = Direction: IN (1)
        .000 0000 = Endpoint value: 0
    Device: 21
    URB bus id: 2
    Device setup request: relevant (0)
    Data: not present ('<')
    URB sec: 1337403230
    URB usec: 497919
    URB status: Operation now in progress (-EINPROGRESS) (-115)
    URB length [bytes]: 255
    Data length [bytes]: 0
    [Response in: 18]
    [bInterfaceClass: HID (0x03)]
    URB setup
        bmRequestType: 0x80
            1... .... = Direction: Device-to-host
            .00. .... = Type: Standard (0x00)
            ...0 0000 = Recipient: Device (0x00)
        bRequest: GET DESCRIPTOR (6)
        Descriptor Index: 0x00
        bDescriptorType: CONFIGURATION (2)
        Language Id: no language specified (0x0000)
        wLength: 255

0000  40 25 17 39 01 88 ff ff 53 02 80 15 02 00 00 3c   @%.9....S......<
0010  5e 27 b7 4f 00 00 00 00 ff 98 07 00 8d ff ff ff   ^'.O............
0020  ff 00 00 00 00 00 00 00 80 06 00 02 00 00 ff 00   ................
0030  00 00 00 00 00 00 00 00 00 02 00 00 00 00 00 00   ................

No.     Time        Source                Destination           Protocol Info                                                            Length
     18 38.911334   21.0                  host                  USB      GET DESCRIPTOR Response CONFIGURATION                           105

Frame 18: 105 bytes on wire (840 bits), 105 bytes captured (840 bits)
    Arrival Time: May 18, 2012 21:53:50.498424000 PDT
    Epoch Time: 1337403230.498424000 seconds
    [Time delta from previous captured frame: 0.000505000 seconds]
    [Time delta from previous displayed frame: 0.000505000 seconds]
    [Time since reference or first frame: 38.911334000 seconds]
    Frame Number: 18
    Frame Length: 105 bytes (840 bits)
    Capture Length: 105 bytes (840 bits)
    [Frame is marked: True]
    [Frame is ignored: False]
    [Protocols in frame: usb]
USB URB
    URB id: 0xffff880139172540
    URB type: URB_COMPLETE ('C')
    URB transfer type: URB_CONTROL (0x02)
    Endpoint: 0x80, Direction: IN
        1... .... = Direction: IN (1)
        .000 0000 = Endpoint value: 0
    Device: 21
    URB bus id: 2
    Device setup request: not relevant ('-')
    Data: present (0)
    URB sec: 1337403230
    URB usec: 498424
    URB status: Success (0)
    URB length [bytes]: 41
    Data length [bytes]: 41
    [Request in: 17]
    [Time from request: 0.000505000 seconds]
    [bInterfaceClass: HID (0x03)]
    CONFIGURATION DESCRIPTOR
        bLength: 9
        bDescriptorType: CONFIGURATION (2)
        wTotalLength: 41
        bNumInterfaces: 1
        bConfigurationValue: 1
        iConfiguration: 0
        Configuration bmAttributes: 0xc0  SELF-POWERED  NO REMOTE-WAKEUP
            1... .... = Must be 1: Must be 1 for USB 1.1 and higher
            .1.. .... = Self-Powered: This device is SELF-POWERED
            ..0. .... = Remote Wakeup: This device does NOT support remote wakeup
        bMaxPower: 50  (100mA)
    INTERFACE DESCRIPTOR
        bLength: 9
        bDescriptorType: INTERFACE (4)
        bInterfaceNumber: 0
        bAlternateSetting: 0
        bNumEndpoints: 2
        bInterfaceClass: HID (0x03)
        bInterfaceSubClass: 0x00
        bInterfaceProtocol: 0x00
        iInterface: 0
    UNKNOWN DESCRIPTOR
        bLength: 9
        bDescriptorType: HID (33)
    ENDPOINT DESCRIPTOR
        bLength: 7
        bDescriptorType: ENDPOINT (5)
        bEndpointAddress: 0x81  IN  Endpoint:1
            1... .... = Direction: IN Endpoint
            .... 0001 = Endpoint Number: 0x01
        bmAttributes: 0x03
            .... ..11 = Transfertype: Interrupt-Transfer (0x03)
            .... 00.. = Synchronisationtype: No Sync (0x00)
            ..00 .... = Behaviourtype: Data-Endpoint (0x00)
        wMaxPacketSize: 64
        bInterval: 1
    ENDPOINT DESCRIPTOR
        bLength: 7
        bDescriptorType: ENDPOINT (5)
        bEndpointAddress: 0x01  OUT  Endpoint:1
            0... .... = Direction: OUT Endpoint
            .... 0001 = Endpoint Number: 0x01
        bmAttributes: 0x03
            .... ..11 = Transfertype: Interrupt-Transfer (0x03)
            .... 00.. = Synchronisationtype: No Sync (0x00)
            ..00 .... = Behaviourtype: Data-Endpoint (0x00)
        wMaxPacketSize: 64
        bInterval: 1

0000  40 25 17 39 01 88 ff ff 43 02 80 15 02 00 2d 00   @%.9....C.....-.
0010  5e 27 b7 4f 00 00 00 00 f8 9a 07 00 00 00 00 00   ^'.O............
0020  29 00 00 00 29 00 00 00 00 00 00 00 00 00 00 00   )...)...........
0030  00 00 00 00 00 00 00 00 00 02 00 00 00 00 00 00   ................
0040  09 02 29 00 01 01 00 c0 32 09 04 00 00 02 03 00   ..).....2.......
0050  00 00 09 21 11 01 00 01 22 1d 00 07 05 81 03 40   ...!...."......@
0060  00 01 07 05 01 03 40 00 01                        ......@..

No.     Time        Source                Destination           Protocol Info                                                            Length
     19 38.914724   host                  21.0                  USB      GET DESCRIPTOR Request DEVICE QUALIFIER                         64

Frame 19: 64 bytes on wire (512 bits), 64 bytes captured (512 bits)
    Arrival Time: May 18, 2012 21:53:50.501814000 PDT
    Epoch Time: 1337403230.501814000 seconds
    [Time delta from previous captured frame: 0.003390000 seconds]
    [Time delta from previous displayed frame: 0.003390000 seconds]
    [Time since reference or first frame: 38.914724000 seconds]
    Frame Number: 19
    Frame Length: 64 bytes (512 bits)
    Capture Length: 64 bytes (512 bits)
    [Frame is marked: True]
    [Frame is ignored: False]
    [Protocols in frame: usb]
USB URB
    URB id: 0xffff880139172540
    URB type: URB_SUBMIT ('S')
    URB transfer type: URB_CONTROL (0x02)
    Endpoint: 0x80, Direction: IN
        1... .... = Direction: IN (1)
        .000 0000 = Endpoint value: 0
    Device: 21
    URB bus id: 2
    Device setup request: relevant (0)
    Data: not present ('<')
    URB sec: 1337403230
    URB usec: 501814
    URB status: Operation now in progress (-EINPROGRESS) (-115)
    URB length [bytes]: 10
    Data length [bytes]: 0
    [Response in: 20]
    [bInterfaceClass: HID (0x03)]
    URB setup
        bmRequestType: 0x80
            1... .... = Direction: Device-to-host
            .00. .... = Type: Standard (0x00)
            ...0 0000 = Recipient: Device (0x00)
        bRequest: GET DESCRIPTOR (6)
        Descriptor Index: 0x00
        bDescriptorType: DEVICE QUALIFIER (6)
        Language Id: no language specified (0x0000)
        wLength: 10

0000  40 25 17 39 01 88 ff ff 53 02 80 15 02 00 00 3c   @%.9....S......<
0010  5e 27 b7 4f 00 00 00 00 36 a8 07 00 8d ff ff ff   ^'.O....6.......
0020  0a 00 00 00 00 00 00 00 80 06 00 06 00 00 0a 00   ................
0030  00 00 00 00 00 00 00 00 00 02 00 00 00 00 00 00   ................

No.     Time        Source                Destination           Protocol Info                                                            Length
     20 38.914965   21.0                  host                  USB      GET DESCRIPTOR Response DEVICE QUALIFIER[Malformed Packet]      64

Frame 20: 64 bytes on wire (512 bits), 64 bytes captured (512 bits)
    Arrival Time: May 18, 2012 21:53:50.502055000 PDT
    Epoch Time: 1337403230.502055000 seconds
    [Time delta from previous captured frame: 0.000241000 seconds]
    [Time delta from previous displayed frame: 0.000241000 seconds]
    [Time since reference or first frame: 38.914965000 seconds]
    Frame Number: 20
    Frame Length: 64 bytes (512 bits)
    Capture Length: 64 bytes (512 bits)
    [Frame is marked: True]
    [Frame is ignored: False]
    [Protocols in frame: usb]
USB URB
    URB id: 0xffff880139172540
    URB type: URB_COMPLETE ('C')
    URB transfer type: URB_CONTROL (0x02)
    Endpoint: 0x80, Direction: IN
        1... .... = Direction: IN (1)
        .000 0000 = Endpoint value: 0
    Device: 21
    URB bus id: 2
    Device setup request: not relevant ('-')
    Data: present (0)
    URB sec: 1337403230
    URB usec: 502055
    URB status: Broken pipe (-EPIPE) (-32)
    URB length [bytes]: 0
    Data length [bytes]: 0
    [Request in: 19]
    [Time from request: 0.000241000 seconds]
    [bInterfaceClass: HID (0x03)]
[Malformed Packet: USB]
    [Expert Info (Error/Malformed): Malformed Packet (Exception occurred)]
        [Message: Malformed Packet (Exception occurred)]
        [Severity level: Error]
        [Group: Malformed]

0000  40 25 17 39 01 88 ff ff 43 02 80 15 02 00 2d 00   @%.9....C.....-.
0010  5e 27 b7 4f 00 00 00 00 27 a9 07 00 e0 ff ff ff   ^'.O....'.......
0020  00 00 00 00 00 00 00 00 00 00 00 00 00 00 00 00   ................
0030  00 00 00 00 00 00 00 00 00 02 00 00 00 00 00 00   ................

No.     Time        Source                Destination           Protocol Info                                                            Length
     21 38.916840   host                  21.0                  USB      GET DESCRIPTOR Request STRING                                   64

Frame 21: 64 bytes on wire (512 bits), 64 bytes captured (512 bits)
    Arrival Time: May 18, 2012 21:53:50.503930000 PDT
    Epoch Time: 1337403230.503930000 seconds
    [Time delta from previous captured frame: 0.001875000 seconds]
    [Time delta from previous displayed frame: 0.001875000 seconds]
    [Time since reference or first frame: 38.916840000 seconds]
    Frame Number: 21
    Frame Length: 64 bytes (512 bits)
    Capture Length: 64 bytes (512 bits)
    [Frame is marked: True]
    [Frame is ignored: False]
    [Protocols in frame: usb]
USB URB
    URB id: 0xffff880139172540
    URB type: URB_SUBMIT ('S')
    URB transfer type: URB_CONTROL (0x02)
    Endpoint: 0x80, Direction: IN
        1... .... = Direction: IN (1)
        .000 0000 = Endpoint value: 0
    Device: 21
    URB bus id: 2
    Device setup request: relevant (0)
    Data: not present ('<')
    URB sec: 1337403230
    URB usec: 503930
    URB status: Operation now in progress (-EINPROGRESS) (-115)
    URB length [bytes]: 255
    Data length [bytes]: 0
    [Response in: 22]
    [bInterfaceClass: HID (0x03)]
    URB setup
        bmRequestType: 0x80
            1... .... = Direction: Device-to-host
            .00. .... = Type: Standard (0x00)
            ...0 0000 = Recipient: Device (0x00)
        bRequest: GET DESCRIPTOR (6)
        Descriptor Index: 0x00
        bDescriptorType: STRING (3)
        Language Id: no language specified (0x0000)
        wLength: 255

0000  40 25 17 39 01 88 ff ff 53 02 80 15 02 00 00 3c   @%.9....S......<
0010  5e 27 b7 4f 00 00 00 00 7a b0 07 00 8d ff ff ff   ^'.O....z.......
0020  ff 00 00 00 00 00 00 00 80 06 00 03 00 00 ff 00   ................
0030  00 00 00 00 00 00 00 00 00 02 00 00 00 00 00 00   ................

No.     Time        Source                Destination           Protocol Info                                                            Length
     22 38.917068   21.0                  host                  USB      GET DESCRIPTOR Response STRING                                  68

Frame 22: 68 bytes on wire (544 bits), 68 bytes captured (544 bits)
    Arrival Time: May 18, 2012 21:53:50.504158000 PDT
    Epoch Time: 1337403230.504158000 seconds
    [Time delta from previous captured frame: 0.000228000 seconds]
    [Time delta from previous displayed frame: 0.000228000 seconds]
    [Time since reference or first frame: 38.917068000 seconds]
    Frame Number: 22
    Frame Length: 68 bytes (544 bits)
    Capture Length: 68 bytes (544 bits)
    [Frame is marked: True]
    [Frame is ignored: False]
    [Protocols in frame: usb]
USB URB
    URB id: 0xffff880139172540
    URB type: URB_COMPLETE ('C')
    URB transfer type: URB_CONTROL (0x02)
    Endpoint: 0x80, Direction: IN
        1... .... = Direction: IN (1)
        .000 0000 = Endpoint value: 0
    Device: 21
    URB bus id: 2
    Device setup request: not relevant ('-')
    Data: present (0)
    URB sec: 1337403230
    URB usec: 504158
    URB status: Success (0)
    URB length [bytes]: 4
    Data length [bytes]: 4
    [Request in: 21]
    [Time from request: 0.000228000 seconds]
    [bInterfaceClass: HID (0x03)]
    STRING DESCRIPTOR
        bLength: 4
        bDescriptorType: STRING (3)
        wLANGID: English (United States) (0x0409)

0000  40 25 17 39 01 88 ff ff 43 02 80 15 02 00 2d 00   @%.9....C.....-.
0010  5e 27 b7 4f 00 00 00 00 5e b1 07 00 00 00 00 00   ^'.O....^.......
0020  04 00 00 00 04 00 00 00 00 00 00 00 00 00 00 00   ................
0030  00 00 00 00 00 00 00 00 00 02 00 00 00 00 00 00   ................
0040  04 03 09 04                                       ....

No.     Time        Source                Destination           Protocol Info                                                            Length
     23 38.919991   host                  21.0                  USB      GET DESCRIPTOR Request STRING                                   64

Frame 23: 64 bytes on wire (512 bits), 64 bytes captured (512 bits)
    Arrival Time: May 18, 2012 21:53:50.507081000 PDT
    Epoch Time: 1337403230.507081000 seconds
    [Time delta from previous captured frame: 0.002923000 seconds]
    [Time delta from previous displayed frame: 0.002923000 seconds]
    [Time since reference or first frame: 38.919991000 seconds]
    Frame Number: 23
    Frame Length: 64 bytes (512 bits)
    Capture Length: 64 bytes (512 bits)
    [Frame is marked: True]
    [Frame is ignored: False]
    [Protocols in frame: usb]
USB URB
    URB id: 0xffff880139172540
    URB type: URB_SUBMIT ('S')
    URB transfer type: URB_CONTROL (0x02)
    Endpoint: 0x80, Direction: IN
        1... .... = Direction: IN (1)
        .000 0000 = Endpoint value: 0
    Device: 21
    URB bus id: 2
    Device setup request: relevant (0)
    Data: not present ('<')
    URB sec: 1337403230
    URB usec: 507081
    URB status: Operation now in progress (-EINPROGRESS) (-115)
    URB length [bytes]: 255
    Data length [bytes]: 0
    [Response in: 24]
    [bInterfaceClass: HID (0x03)]
    URB setup
        bmRequestType: 0x80
            1... .... = Direction: Device-to-host
            .00. .... = Type: Standard (0x00)
            ...0 0000 = Recipient: Device (0x00)
        bRequest: GET DESCRIPTOR (6)
        Descriptor Index: 0x02
        bDescriptorType: STRING (3)
        Language Id: English (United States) (0x0409)
        wLength: 255

0000  40 25 17 39 01 88 ff ff 53 02 80 15 02 00 00 3c   @%.9....S......<
0010  5e 27 b7 4f 00 00 00 00 c9 bc 07 00 8d ff ff ff   ^'.O............
0020  ff 00 00 00 00 00 00 00 80 06 02 03 09 04 ff 00   ................
0030  00 00 00 00 00 00 00 00 00 02 00 00 00 00 00 00   ................

No.     Time        Source                Destination           Protocol Info                                                            Length
     24 38.920962   21.0                  host                  USB      GET DESCRIPTOR Response STRING                                  126

Frame 24: 126 bytes on wire (1008 bits), 126 bytes captured (1008 bits)
    Arrival Time: May 18, 2012 21:53:50.508052000 PDT
    Epoch Time: 1337403230.508052000 seconds
    [Time delta from previous captured frame: 0.000971000 seconds]
    [Time delta from previous displayed frame: 0.000971000 seconds]
    [Time since reference or first frame: 38.920962000 seconds]
    Frame Number: 24
    Frame Length: 126 bytes (1008 bits)
    Capture Length: 126 bytes (1008 bits)
    [Frame is marked: True]
    [Frame is ignored: False]
    [Protocols in frame: usb]
USB URB
    URB id: 0xffff880139172540
    URB type: URB_COMPLETE ('C')
    URB transfer type: URB_CONTROL (0x02)
    Endpoint: 0x80, Direction: IN
        1... .... = Direction: IN (1)
        .000 0000 = Endpoint value: 0
    Device: 21
    URB bus id: 2
    Device setup request: not relevant ('-')
    Data: present (0)
    URB sec: 1337403230
    URB usec: 508052
    URB status: Success (0)
    URB length [bytes]: 62
    Data length [bytes]: 62
    [Request in: 23]
    [Time from request: 0.000971000 seconds]
    [bInterfaceClass: HID (0x03)]
    STRING DESCRIPTOR
        bLength: 62
        bDescriptorType: STRING (3)
        bString: RealTouch Output Device v2.1.0

0000  40 25 17 39 01 88 ff ff 43 02 80 15 02 00 2d 00   @%.9....C.....-.
0010  5e 27 b7 4f 00 00 00 00 94 c0 07 00 00 00 00 00   ^'.O............
0020  3e 00 00 00 3e 00 00 00 00 00 00 00 00 00 00 00   >...>...........
0030  00 00 00 00 00 00 00 00 00 02 00 00 00 00 00 00   ................
0040  3e 03 52 00 65 00 61 00 6c 00 54 00 6f 00 75 00   >.R.e.a.l.T.o.u.
0050  63 00 68 00 20 00 4f 00 75 00 74 00 70 00 75 00   c.h. .O.u.t.p.u.
0060  74 00 20 00 44 00 65 00 76 00 69 00 63 00 65 00   t. .D.e.v.i.c.e.
0070  20 00 76 00 32 00 2e 00 31 00 2e 00 30 00          .v.2...1...0.

No.     Time        Source                Destination           Protocol Info                                                            Length
     25 38.921958   host                  21.0                  USB      GET DESCRIPTOR Request STRING                                   64

Frame 25: 64 bytes on wire (512 bits), 64 bytes captured (512 bits)
    Arrival Time: May 18, 2012 21:53:50.509048000 PDT
    Epoch Time: 1337403230.509048000 seconds
    [Time delta from previous captured frame: 0.000996000 seconds]
    [Time delta from previous displayed frame: 0.000996000 seconds]
    [Time since reference or first frame: 38.921958000 seconds]
    Frame Number: 25
    Frame Length: 64 bytes (512 bits)
    Capture Length: 64 bytes (512 bits)
    [Frame is marked: True]
    [Frame is ignored: False]
    [Protocols in frame: usb]
USB URB
    URB id: 0xffff880139172540
    URB type: URB_SUBMIT ('S')
    URB transfer type: URB_CONTROL (0x02)
    Endpoint: 0x80, Direction: IN
        1... .... = Direction: IN (1)
        .000 0000 = Endpoint value: 0
    Device: 21
    URB bus id: 2
    Device setup request: relevant (0)
    Data: not present ('<')
    URB sec: 1337403230
    URB usec: 509048
    URB status: Operation now in progress (-EINPROGRESS) (-115)
    URB length [bytes]: 255
    Data length [bytes]: 0
    [Response in: 26]
    [bInterfaceClass: HID (0x03)]
    URB setup
        bmRequestType: 0x80
            1... .... = Direction: Device-to-host
            .00. .... = Type: Standard (0x00)
            ...0 0000 = Recipient: Device (0x00)
        bRequest: GET DESCRIPTOR (6)
        Descriptor Index: 0x00
        bDescriptorType: STRING (3)
        Language Id: no language specified (0x0000)
        wLength: 255

0000  40 25 17 39 01 88 ff ff 53 02 80 15 02 00 00 3c   @%.9....S......<
0010  5e 27 b7 4f 00 00 00 00 78 c4 07 00 8d ff ff ff   ^'.O....x.......
0020  ff 00 00 00 00 00 00 00 80 06 00 03 00 00 ff 00   ................
0030  00 00 00 00 00 00 00 00 00 02 00 00 00 00 00 00   ................

No.     Time        Source                Destination           Protocol Info                                                            Length
     26 38.922214   21.0                  host                  USB      GET DESCRIPTOR Response STRING                                  68

Frame 26: 68 bytes on wire (544 bits), 68 bytes captured (544 bits)
    Arrival Time: May 18, 2012 21:53:50.509304000 PDT
    Epoch Time: 1337403230.509304000 seconds
    [Time delta from previous captured frame: 0.000256000 seconds]
    [Time delta from previous displayed frame: 0.000256000 seconds]
    [Time since reference or first frame: 38.922214000 seconds]
    Frame Number: 26
    Frame Length: 68 bytes (544 bits)
    Capture Length: 68 bytes (544 bits)
    [Frame is marked: True]
    [Frame is ignored: False]
    [Protocols in frame: usb]
USB URB
    URB id: 0xffff880139172540
    URB type: URB_COMPLETE ('C')
    URB transfer type: URB_CONTROL (0x02)
    Endpoint: 0x80, Direction: IN
        1... .... = Direction: IN (1)
        .000 0000 = Endpoint value: 0
    Device: 21
    URB bus id: 2
    Device setup request: not relevant ('-')
    Data: present (0)
    URB sec: 1337403230
    URB usec: 509304
    URB status: Success (0)
    URB length [bytes]: 4
    Data length [bytes]: 4
    [Request in: 25]
    [Time from request: 0.000256000 seconds]
    [bInterfaceClass: HID (0x03)]
    STRING DESCRIPTOR
        bLength: 4
        bDescriptorType: STRING (3)
        wLANGID: English (United States) (0x0409)

0000  40 25 17 39 01 88 ff ff 43 02 80 15 02 00 2d 00   @%.9....C.....-.
0010  5e 27 b7 4f 00 00 00 00 78 c5 07 00 00 00 00 00   ^'.O....x.......
0020  04 00 00 00 04 00 00 00 00 00 00 00 00 00 00 00   ................
0030  00 00 00 00 00 00 00 00 00 02 00 00 00 00 00 00   ................
0040  04 03 09 04                                       ....

No.     Time        Source                Destination           Protocol Info                                                            Length
     27 38.923961   host                  21.0                  USB      GET DESCRIPTOR Request STRING                                   64

Frame 27: 64 bytes on wire (512 bits), 64 bytes captured (512 bits)
    Arrival Time: May 18, 2012 21:53:50.511051000 PDT
    Epoch Time: 1337403230.511051000 seconds
    [Time delta from previous captured frame: 0.001747000 seconds]
    [Time delta from previous displayed frame: 0.001747000 seconds]
    [Time since reference or first frame: 38.923961000 seconds]
    Frame Number: 27
    Frame Length: 64 bytes (512 bits)
    Capture Length: 64 bytes (512 bits)
    [Frame is marked: True]
    [Frame is ignored: False]
    [Protocols in frame: usb]
USB URB
    URB id: 0xffff880139172540
    URB type: URB_SUBMIT ('S')
    URB transfer type: URB_CONTROL (0x02)
    Endpoint: 0x80, Direction: IN
        1... .... = Direction: IN (1)
        .000 0000 = Endpoint value: 0
    Device: 21
    URB bus id: 2
    Device setup request: relevant (0)
    Data: not present ('<')
    URB sec: 1337403230
    URB usec: 511051
    URB status: Operation now in progress (-EINPROGRESS) (-115)
    URB length [bytes]: 255
    Data length [bytes]: 0
    [Response in: 28]
    [bInterfaceClass: HID (0x03)]
    URB setup
        bmRequestType: 0x80
            1... .... = Direction: Device-to-host
            .00. .... = Type: Standard (0x00)
            ...0 0000 = Recipient: Device (0x00)
        bRequest: GET DESCRIPTOR (6)
        Descriptor Index: 0x02
        bDescriptorType: STRING (3)
        Language Id: English (United States) (0x0409)
        wLength: 255

0000  40 25 17 39 01 88 ff ff 53 02 80 15 02 00 00 3c   @%.9....S......<
0010  5e 27 b7 4f 00 00 00 00 4b cc 07 00 8d ff ff ff   ^'.O....K.......
0020  ff 00 00 00 00 00 00 00 80 06 02 03 09 04 ff 00   ................
0030  00 00 00 00 00 00 00 00 00 02 00 00 00 00 00 00   ................

No.     Time        Source                Destination           Protocol Info                                                            Length
     28 38.924692   21.0                  host                  USB      GET DESCRIPTOR Response STRING                                  126

Frame 28: 126 bytes on wire (1008 bits), 126 bytes captured (1008 bits)
    Arrival Time: May 18, 2012 21:53:50.511782000 PDT
    Epoch Time: 1337403230.511782000 seconds
    [Time delta from previous captured frame: 0.000731000 seconds]
    [Time delta from previous displayed frame: 0.000731000 seconds]
    [Time since reference or first frame: 38.924692000 seconds]
    Frame Number: 28
    Frame Length: 126 bytes (1008 bits)
    Capture Length: 126 bytes (1008 bits)
    [Frame is marked: True]
    [Frame is ignored: False]
    [Protocols in frame: usb]
USB URB
    URB id: 0xffff880139172540
    URB type: URB_COMPLETE ('C')
    URB transfer type: URB_CONTROL (0x02)
    Endpoint: 0x80, Direction: IN
        1... .... = Direction: IN (1)
        .000 0000 = Endpoint value: 0
    Device: 21
    URB bus id: 2
    Device setup request: not relevant ('-')
    Data: present (0)
    URB sec: 1337403230
    URB usec: 511782
    URB status: Success (0)
    URB length [bytes]: 62
    Data length [bytes]: 62
    [Request in: 27]
    [Time from request: 0.000731000 seconds]
    [bInterfaceClass: HID (0x03)]
    STRING DESCRIPTOR
        bLength: 62
        bDescriptorType: STRING (3)
        bString: RealTouch Output Device v2.1.0

0000  40 25 17 39 01 88 ff ff 43 02 80 15 02 00 2d 00   @%.9....C.....-.
0010  5e 27 b7 4f 00 00 00 00 26 cf 07 00 00 00 00 00   ^'.O....&.......
0020  3e 00 00 00 3e 00 00 00 00 00 00 00 00 00 00 00   >...>...........
0030  00 00 00 00 00 00 00 00 00 02 00 00 00 00 00 00   ................
0040  3e 03 52 00 65 00 61 00 6c 00 54 00 6f 00 75 00   >.R.e.a.l.T.o.u.
0050  63 00 68 00 20 00 4f 00 75 00 74 00 70 00 75 00   c.h. .O.u.t.p.u.
0060  74 00 20 00 44 00 65 00 76 00 69 00 63 00 65 00   t. .D.e.v.i.c.e.
0070  20 00 76 00 32 00 2e 00 31 00 2e 00 30 00          .v.2...1...0.

No.     Time        Source                Destination           Protocol Info                                                            Length
     29 38.927140   host                  21.0                  USB      GET DESCRIPTOR Request DEVICE                                   64

Frame 29: 64 bytes on wire (512 bits), 64 bytes captured (512 bits)
    Arrival Time: May 18, 2012 21:53:50.514230000 PDT
    Epoch Time: 1337403230.514230000 seconds
    [Time delta from previous captured frame: 0.002448000 seconds]
    [Time delta from previous displayed frame: 0.002448000 seconds]
    [Time since reference or first frame: 38.927140000 seconds]
    Frame Number: 29
    Frame Length: 64 bytes (512 bits)
    Capture Length: 64 bytes (512 bits)
    [Frame is marked: True]
    [Frame is ignored: False]
    [Protocols in frame: usb]
USB URB
    URB id: 0xffff880139172540
    URB type: URB_SUBMIT ('S')
    URB transfer type: URB_CONTROL (0x02)
    Endpoint: 0x80, Direction: IN
        1... .... = Direction: IN (1)
        .000 0000 = Endpoint value: 0
    Device: 21
    URB bus id: 2
    Device setup request: relevant (0)
    Data: not present ('<')
    URB sec: 1337403230
    URB usec: 514230
    URB status: Operation now in progress (-EINPROGRESS) (-115)
    URB length [bytes]: 18
    Data length [bytes]: 0
    [Response in: 30]
    [bInterfaceClass: HID (0x03)]
    URB setup
        bmRequestType: 0x80
            1... .... = Direction: Device-to-host
            .00. .... = Type: Standard (0x00)
            ...0 0000 = Recipient: Device (0x00)
        bRequest: GET DESCRIPTOR (6)
        Descriptor Index: 0x00
        bDescriptorType: DEVICE (1)
        Language Id: no language specified (0x0000)
        wLength: 18

0000  40 25 17 39 01 88 ff ff 53 02 80 15 02 00 00 3c   @%.9....S......<
0010  5e 27 b7 4f 00 00 00 00 b6 d8 07 00 8d ff ff ff   ^'.O............
0020  12 00 00 00 00 00 00 00 80 06 00 01 00 00 12 00   ................
0030  00 00 00 00 00 00 00 00 00 02 00 00 00 00 00 00   ................

No.     Time        Source                Destination           Protocol Info                                                            Length
     30 38.927570   21.0                  host                  USB      GET DESCRIPTOR Response DEVICE                                  82

Frame 30: 82 bytes on wire (656 bits), 82 bytes captured (656 bits)
    Arrival Time: May 18, 2012 21:53:50.514660000 PDT
    Epoch Time: 1337403230.514660000 seconds
    [Time delta from previous captured frame: 0.000430000 seconds]
    [Time delta from previous displayed frame: 0.000430000 seconds]
    [Time since reference or first frame: 38.927570000 seconds]
    Frame Number: 30
    Frame Length: 82 bytes (656 bits)
    Capture Length: 82 bytes (656 bits)
    [Frame is marked: True]
    [Frame is ignored: False]
    [Protocols in frame: usb]
USB URB
    URB id: 0xffff880139172540
    URB type: URB_COMPLETE ('C')
    URB transfer type: URB_CONTROL (0x02)
    Endpoint: 0x80, Direction: IN
        1... .... = Direction: IN (1)
        .000 0000 = Endpoint value: 0
    Device: 21
    URB bus id: 2
    Device setup request: not relevant ('-')
    Data: present (0)
    URB sec: 1337403230
    URB usec: 514660
    URB status: Success (0)
    URB length [bytes]: 18
    Data length [bytes]: 18
    [Request in: 29]
    [Time from request: 0.000430000 seconds]
    [bInterfaceClass: HID (0x03)]
    DEVICE DESCRIPTOR
        bLength: 18
        bDescriptorType: DEVICE (1)
        bcdUSB: 0x0200
        bDeviceClass: 0
        bDeviceSubClass: 0
        bDeviceProtocol: 0
        bMaxPacketSize0: 8
        idVendor: 0x1f54
        idProduct: 0x0001
        bcdDevice: 0x0002
        iManufacturer: 1
        iProduct: 2
        iSerialNumber: 0
        bNumConfigurations: 1

0000  40 25 17 39 01 88 ff ff 43 02 80 15 02 00 2d 00   @%.9....C.....-.
0010  5e 27 b7 4f 00 00 00 00 64 da 07 00 00 00 00 00   ^'.O....d.......
0020  12 00 00 00 12 00 00 00 00 00 00 00 00 00 00 00   ................
0030  00 00 00 00 00 00 00 00 00 02 00 00 00 00 00 00   ................
0040  12 01 00 02 00 00 00 08 54 1f 01 00 02 00 01 02   ........T.......
0050  00 01                                             ..

No.     Time        Source                Destination           Protocol Info                                                            Length
     31 38.930446   host                  21.0                  USB      GET DESCRIPTOR Request CONFIGURATION                            64

Frame 31: 64 bytes on wire (512 bits), 64 bytes captured (512 bits)
    Arrival Time: May 18, 2012 21:53:50.517536000 PDT
    Epoch Time: 1337403230.517536000 seconds
    [Time delta from previous captured frame: 0.002876000 seconds]
    [Time delta from previous displayed frame: 0.002876000 seconds]
    [Time since reference or first frame: 38.930446000 seconds]
    Frame Number: 31
    Frame Length: 64 bytes (512 bits)
    Capture Length: 64 bytes (512 bits)
    [Frame is marked: True]
    [Frame is ignored: False]
    [Protocols in frame: usb]
USB URB
    URB id: 0xffff880139172540
    URB type: URB_SUBMIT ('S')
    URB transfer type: URB_CONTROL (0x02)
    Endpoint: 0x80, Direction: IN
        1... .... = Direction: IN (1)
        .000 0000 = Endpoint value: 0
    Device: 21
    URB bus id: 2
    Device setup request: relevant (0)
    Data: not present ('<')
    URB sec: 1337403230
    URB usec: 517536
    URB status: Operation now in progress (-EINPROGRESS) (-115)
    URB length [bytes]: 9
    Data length [bytes]: 0
    [Response in: 32]
    [bInterfaceClass: HID (0x03)]
    URB setup
        bmRequestType: 0x80
            1... .... = Direction: Device-to-host
            .00. .... = Type: Standard (0x00)
            ...0 0000 = Recipient: Device (0x00)
        bRequest: GET DESCRIPTOR (6)
        Descriptor Index: 0x00
        bDescriptorType: CONFIGURATION (2)
        Language Id: no language specified (0x0000)
        wLength: 9

0000  40 25 17 39 01 88 ff ff 53 02 80 15 02 00 00 3c   @%.9....S......<
0010  5e 27 b7 4f 00 00 00 00 a0 e5 07 00 8d ff ff ff   ^'.O............
0020  09 00 00 00 00 00 00 00 80 06 00 02 00 00 09 00   ................
0030  00 00 00 00 00 00 00 00 00 02 00 00 00 00 00 00   ................

No.     Time        Source                Destination           Protocol Info                                                            Length
     32 38.930717   21.0                  host                  USB      GET DESCRIPTOR Response CONFIGURATION                           73

Frame 32: 73 bytes on wire (584 bits), 73 bytes captured (584 bits)
    Arrival Time: May 18, 2012 21:53:50.517807000 PDT
    Epoch Time: 1337403230.517807000 seconds
    [Time delta from previous captured frame: 0.000271000 seconds]
    [Time delta from previous displayed frame: 0.000271000 seconds]
    [Time since reference or first frame: 38.930717000 seconds]
    Frame Number: 32
    Frame Length: 73 bytes (584 bits)
    Capture Length: 73 bytes (584 bits)
    [Frame is marked: True]
    [Frame is ignored: False]
    [Protocols in frame: usb]
USB URB
    URB id: 0xffff880139172540
    URB type: URB_COMPLETE ('C')
    URB transfer type: URB_CONTROL (0x02)
    Endpoint: 0x80, Direction: IN
        1... .... = Direction: IN (1)
        .000 0000 = Endpoint value: 0
    Device: 21
    URB bus id: 2
    Device setup request: not relevant ('-')
    Data: present (0)
    URB sec: 1337403230
    URB usec: 517807
    URB status: Success (0)
    URB length [bytes]: 9
    Data length [bytes]: 9
    [Request in: 31]
    [Time from request: 0.000271000 seconds]
    [bInterfaceClass: HID (0x03)]
    CONFIGURATION DESCRIPTOR
        bLength: 9
        bDescriptorType: CONFIGURATION (2)
        wTotalLength: 41
        bNumInterfaces: 1
        bConfigurationValue: 1
        iConfiguration: 0
        Configuration bmAttributes: 0xc0  SELF-POWERED  NO REMOTE-WAKEUP
            1... .... = Must be 1: Must be 1 for USB 1.1 and higher
            .1.. .... = Self-Powered: This device is SELF-POWERED
            ..0. .... = Remote Wakeup: This device does NOT support remote wakeup
        bMaxPower: 50  (100mA)

0000  40 25 17 39 01 88 ff ff 43 02 80 15 02 00 2d 00   @%.9....C.....-.
0010  5e 27 b7 4f 00 00 00 00 af e6 07 00 00 00 00 00   ^'.O............
0020  09 00 00 00 09 00 00 00 00 00 00 00 00 00 00 00   ................
0030  00 00 00 00 00 00 00 00 00 02 00 00 00 00 00 00   ................
0040  09 02 29 00 01 01 00 c0 32                        ..).....2

No.     Time        Source                Destination           Protocol Info                                                            Length
     33 38.932442   host                  21.0                  USB      GET DESCRIPTOR Request CONFIGURATION                            64

Frame 33: 64 bytes on wire (512 bits), 64 bytes captured (512 bits)
    Arrival Time: May 18, 2012 21:53:50.519532000 PDT
    Epoch Time: 1337403230.519532000 seconds
    [Time delta from previous captured frame: 0.001725000 seconds]
    [Time delta from previous displayed frame: 0.001725000 seconds]
    [Time since reference or first frame: 38.932442000 seconds]
    Frame Number: 33
    Frame Length: 64 bytes (512 bits)
    Capture Length: 64 bytes (512 bits)
    [Frame is marked: True]
    [Frame is ignored: False]
    [Protocols in frame: usb]
USB URB
    URB id: 0xffff880139172540
    URB type: URB_SUBMIT ('S')
    URB transfer type: URB_CONTROL (0x02)
    Endpoint: 0x80, Direction: IN
        1... .... = Direction: IN (1)
        .000 0000 = Endpoint value: 0
    Device: 21
    URB bus id: 2
    Device setup request: relevant (0)
    Data: not present ('<')
    URB sec: 1337403230
    URB usec: 519532
    URB status: Operation now in progress (-EINPROGRESS) (-115)
    URB length [bytes]: 41
    Data length [bytes]: 0
    [Response in: 34]
    [bInterfaceClass: HID (0x03)]
    URB setup
        bmRequestType: 0x80
            1... .... = Direction: Device-to-host
            .00. .... = Type: Standard (0x00)
            ...0 0000 = Recipient: Device (0x00)
        bRequest: GET DESCRIPTOR (6)
        Descriptor Index: 0x00
        bDescriptorType: CONFIGURATION (2)
        Language Id: no language specified (0x0000)
        wLength: 41

0000  40 25 17 39 01 88 ff ff 53 02 80 15 02 00 00 3c   @%.9....S......<
0010  5e 27 b7 4f 00 00 00 00 6c ed 07 00 8d ff ff ff   ^'.O....l.......
0020  29 00 00 00 00 00 00 00 80 06 00 02 00 00 29 00   ).............).
0030  00 00 00 00 00 00 00 00 00 02 00 00 00 00 00 00   ................

No.     Time        Source                Destination           Protocol Info                                                            Length
     34 38.933213   21.0                  host                  USB      GET DESCRIPTOR Response CONFIGURATION                           105

Frame 34: 105 bytes on wire (840 bits), 105 bytes captured (840 bits)
    Arrival Time: May 18, 2012 21:53:50.520303000 PDT
    Epoch Time: 1337403230.520303000 seconds
    [Time delta from previous captured frame: 0.000771000 seconds]
    [Time delta from previous displayed frame: 0.000771000 seconds]
    [Time since reference or first frame: 38.933213000 seconds]
    Frame Number: 34
    Frame Length: 105 bytes (840 bits)
    Capture Length: 105 bytes (840 bits)
    [Frame is marked: True]
    [Frame is ignored: False]
    [Protocols in frame: usb]
USB URB
    URB id: 0xffff880139172540
    URB type: URB_COMPLETE ('C')
    URB transfer type: URB_CONTROL (0x02)
    Endpoint: 0x80, Direction: IN
        1... .... = Direction: IN (1)
        .000 0000 = Endpoint value: 0
    Device: 21
    URB bus id: 2
    Device setup request: not relevant ('-')
    Data: present (0)
    URB sec: 1337403230
    URB usec: 520303
    URB status: Success (0)
    URB length [bytes]: 41
    Data length [bytes]: 41
    [Request in: 33]
    [Time from request: 0.000771000 seconds]
    [bInterfaceClass: HID (0x03)]
    CONFIGURATION DESCRIPTOR
        bLength: 9
        bDescriptorType: CONFIGURATION (2)
        wTotalLength: 41
        bNumInterfaces: 1
        bConfigurationValue: 1
        iConfiguration: 0
        Configuration bmAttributes: 0xc0  SELF-POWERED  NO REMOTE-WAKEUP
            1... .... = Must be 1: Must be 1 for USB 1.1 and higher
            .1.. .... = Self-Powered: This device is SELF-POWERED
            ..0. .... = Remote Wakeup: This device does NOT support remote wakeup
        bMaxPower: 50  (100mA)
    INTERFACE DESCRIPTOR
        bLength: 9
        bDescriptorType: INTERFACE (4)
        bInterfaceNumber: 0
        bAlternateSetting: 0
        bNumEndpoints: 2
        bInterfaceClass: HID (0x03)
        bInterfaceSubClass: 0x00
        bInterfaceProtocol: 0x00
        iInterface: 0
    UNKNOWN DESCRIPTOR
        bLength: 9
        bDescriptorType: HID (33)
    ENDPOINT DESCRIPTOR
        bLength: 7
        bDescriptorType: ENDPOINT (5)
        bEndpointAddress: 0x81  IN  Endpoint:1
            1... .... = Direction: IN Endpoint
            .... 0001 = Endpoint Number: 0x01
        bmAttributes: 0x03
            .... ..11 = Transfertype: Interrupt-Transfer (0x03)
            .... 00.. = Synchronisationtype: No Sync (0x00)
            ..00 .... = Behaviourtype: Data-Endpoint (0x00)
        wMaxPacketSize: 64
        bInterval: 1
    ENDPOINT DESCRIPTOR
        bLength: 7
        bDescriptorType: ENDPOINT (5)
        bEndpointAddress: 0x01  OUT  Endpoint:1
            0... .... = Direction: OUT Endpoint
            .... 0001 = Endpoint Number: 0x01
        bmAttributes: 0x03
            .... ..11 = Transfertype: Interrupt-Transfer (0x03)
            .... 00.. = Synchronisationtype: No Sync (0x00)
            ..00 .... = Behaviourtype: Data-Endpoint (0x00)
        wMaxPacketSize: 64
        bInterval: 1

0000  40 25 17 39 01 88 ff ff 43 02 80 15 02 00 2d 00   @%.9....C.....-.
0010  5e 27 b7 4f 00 00 00 00 6f f0 07 00 00 00 00 00   ^'.O....o.......
0020  29 00 00 00 29 00 00 00 00 00 00 00 00 00 00 00   )...)...........
0030  00 00 00 00 00 00 00 00 00 02 00 00 00 00 00 00   ................
0040  09 02 29 00 01 01 00 c0 32 09 04 00 00 02 03 00   ..).....2.......
0050  00 00 09 21 11 01 00 01 22 1d 00 07 05 81 03 40   ...!...."......@
0060  00 01 07 05 01 03 40 00 01                        ......@..

No.     Time        Source                Destination           Protocol Info                                                            Length
     35 38.958478   host                  21.0                  USBHID   SET_IDLE Request                                                64

Frame 35: 64 bytes on wire (512 bits), 64 bytes captured (512 bits)
    Arrival Time: May 18, 2012 21:53:50.545568000 PDT
    Epoch Time: 1337403230.545568000 seconds
    [Time delta from previous captured frame: 0.025265000 seconds]
    [Time delta from previous displayed frame: 0.025265000 seconds]
    [Time since reference or first frame: 38.958478000 seconds]
    Frame Number: 35
    Frame Length: 64 bytes (512 bits)
    Capture Length: 64 bytes (512 bits)
    [Frame is marked: True]
    [Frame is ignored: False]
    [Protocols in frame: usb:usbhid]
USB URB
    URB id: 0xffff880139172540
    URB type: URB_SUBMIT ('S')
    URB transfer type: URB_CONTROL (0x02)
    Endpoint: 0x00, Direction: OUT
        0... .... = Direction: OUT (0)
        .000 0000 = Endpoint value: 0
    Device: 21
    URB bus id: 2
    Device setup request: relevant (0)
    Data: present (0)
    URB sec: 1337403230
    URB usec: 545568
    URB status: Operation now in progress (-EINPROGRESS) (-115)
    URB length [bytes]: 0
    Data length [bytes]: 0
    [Response in: 36]
    [bInterfaceClass: HID (0x03)]
    URB setup
        bmRequestType: 0x21
            0... .... = Direction: Host-to-device
            .01. .... = Type: Class (0x01)
            ...0 0001 = Recipient: Interface (0x01)
    bRequest: SET_IDLE (0x0a)
    wValue: 0x0000
        ReportID: 0
        Duration: 0
    wIndex: 0
    wLength: 0

0000  40 25 17 39 01 88 ff ff 53 02 00 15 02 00 00 00   @%.9....S.......
0010  5e 27 b7 4f 00 00 00 00 20 53 08 00 8d ff ff ff   ^'.O.... S......
0020  00 00 00 00 00 00 00 00 21 0a 00 00 00 00 00 00   ........!.......
0030  00 00 00 00 00 00 00 00 00 00 00 00 00 00 00 00   ................

No.     Time        Source                Destination           Protocol Info                                                            Length
     36 38.958695   21.0                  host                  USBHID   SET_IDLE Response                                               64

Frame 36: 64 bytes on wire (512 bits), 64 bytes captured (512 bits)
    Arrival Time: May 18, 2012 21:53:50.545785000 PDT
    Epoch Time: 1337403230.545785000 seconds
    [Time delta from previous captured frame: 0.000217000 seconds]
    [Time delta from previous displayed frame: 0.000217000 seconds]
    [Time since reference or first frame: 38.958695000 seconds]
    Frame Number: 36
    Frame Length: 64 bytes (512 bits)
    Capture Length: 64 bytes (512 bits)
    [Frame is marked: True]
    [Frame is ignored: False]
    [Protocols in frame: usb:usbhid]
USB URB
    URB id: 0xffff880139172540
    URB type: URB_COMPLETE ('C')
    URB transfer type: URB_CONTROL (0x02)
    Endpoint: 0x00, Direction: OUT
        0... .... = Direction: OUT (0)
        .000 0000 = Endpoint value: 0
    Device: 21
    URB bus id: 2
    Device setup request: not relevant ('-')
    Data: not present ('>')
    URB sec: 1337403230
    URB usec: 545785
    URB status: Success (0)
    URB length [bytes]: 0
    Data length [bytes]: 0
    [Request in: 35]
    [Time from request: 0.000217000 seconds]
    [bInterfaceClass: HID (0x03)]

0000  40 25 17 39 01 88 ff ff 43 02 00 15 02 00 2d 3e   @%.9....C.....->
0010  5e 27 b7 4f 00 00 00 00 f9 53 08 00 00 00 00 00   ^'.O.....S......
0020  00 00 00 00 00 00 00 00 00 00 00 00 00 00 00 00   ................
0030  00 00 00 00 00 00 00 00 00 00 00 00 00 00 00 00   ................

No.     Time        Source                Destination           Protocol Info                                                            Length
     37 38.960468   host                  21.0                  USB      GET DESCRIPTOR Request RPIPE                                    64

Frame 37: 64 bytes on wire (512 bits), 64 bytes captured (512 bits)
    Arrival Time: May 18, 2012 21:53:50.547558000 PDT
    Epoch Time: 1337403230.547558000 seconds
    [Time delta from previous captured frame: 0.001773000 seconds]
    [Time delta from previous displayed frame: 0.001773000 seconds]
    [Time since reference or first frame: 38.960468000 seconds]
    Frame Number: 37
    Frame Length: 64 bytes (512 bits)
    Capture Length: 64 bytes (512 bits)
    [Frame is marked: True]
    [Frame is ignored: False]
    [Protocols in frame: usb]
USB URB
    URB id: 0xffff880139172540
    URB type: URB_SUBMIT ('S')
    URB transfer type: URB_CONTROL (0x02)
    Endpoint: 0x80, Direction: IN
        1... .... = Direction: IN (1)
        .000 0000 = Endpoint value: 0
    Device: 21
    URB bus id: 2
    Device setup request: relevant (0)
    Data: not present ('<')
    URB sec: 1337403230
    URB usec: 547558
    URB status: Operation now in progress (-EINPROGRESS) (-115)
    URB length [bytes]: 93
    Data length [bytes]: 0
    [Response in: 38]
    [bInterfaceClass: HID (0x03)]
    URB setup
        bmRequestType: 0x81
            1... .... = Direction: Device-to-host
            .00. .... = Type: Standard (0x00)
            ...0 0001 = Recipient: Interface (0x01)
        bRequest: GET DESCRIPTOR (6)
        Descriptor Index: 0x00
        bDescriptorType: RPIPE (34)
        Language Id: no language specified (0x0000)
        wLength: 93

0000  40 25 17 39 01 88 ff ff 53 02 80 15 02 00 00 3c   @%.9....S......<
0010  5e 27 b7 4f 00 00 00 00 e6 5a 08 00 8d ff ff ff   ^'.O.....Z......
0020  5d 00 00 00 00 00 00 00 81 06 00 22 00 00 5d 00   ].........."..].
0030  00 00 00 00 00 00 00 00 00 02 00 00 00 00 00 00   ................

No.     Time        Source                Destination           Protocol Info                                                            Length
     38 38.960818   21.0                  host                  USB      GET DESCRIPTOR Response RPIPE                                   93

Frame 38: 93 bytes on wire (744 bits), 93 bytes captured (744 bits)
    Arrival Time: May 18, 2012 21:53:50.547908000 PDT
    Epoch Time: 1337403230.547908000 seconds
    [Time delta from previous captured frame: 0.000350000 seconds]
    [Time delta from previous displayed frame: 0.000350000 seconds]
    [Time since reference or first frame: 38.960818000 seconds]
    Frame Number: 38
    Frame Length: 93 bytes (744 bits)
    Capture Length: 93 bytes (744 bits)
    [Frame is marked: True]
    [Frame is ignored: False]
    [Protocols in frame: usb]
USB URB
    URB id: 0xffff880139172540
    URB type: URB_COMPLETE ('C')
    URB transfer type: URB_CONTROL (0x02)
    Endpoint: 0x80, Direction: IN
        1... .... = Direction: IN (1)
        .000 0000 = Endpoint value: 0
    Device: 21
    URB bus id: 2
    Device setup request: not relevant ('-')
    Data: present (0)
    URB sec: 1337403230
    URB usec: 547908
    URB status: Success (0)
    URB length [bytes]: 29
    Data length [bytes]: 29
    [Request in: 37]
    [Time from request: 0.000350000 seconds]
    [bInterfaceClass: HID (0x03)]
    HID Report
        Global item (Usage)
            Header
                .... ..10 = bSize: 2 bytes (2)
                .... 01.. = bType: Global (1)
                0000 .... = bTag: Usage (0x00)
            Usage page: [Vendor-defined] (0xff00)
        Local item (Usage)
            Header
                .... ..01 = bSize: 1 byte (1)
                .... 10.. = bType: Local (2)
                0000 .... = bTag: Usage (0x00)
            Usage: [Vendor-defined] (0x0000ff01)
        Main item (Collection)
            Header
                .... ..01 = bSize: 1 byte (1)
                .... 00.. = bType: Main (0)
                1010 .... = bTag: Collection (0x0a)
            Collection type: Application (0x01)
            Local item (Usage minimum)
                Header
                    .... ..01 = bSize: 1 byte (1)
                    .... 10.. = bType: Local (2)
                    0001 .... = bTag: Usage minimum (0x01)
                Usage minimum: 0x01
            Local item (Usage maximum)
                Header
                    .... ..01 = bSize: 1 byte (1)
                    .... 10.. = bType: Local (2)
                    0010 .... = bTag: Usage maximum (0x02)
                Usage: Medical instruments (0x40)
            Global item (Logical minimum)
                Header
                    .... ..01 = bSize: 1 byte (1)
                    .... 01.. = bType: Global (1)
                    0001 .... = bTag: Logical minimum (0x01)
                Logical minimum: 0
            Global item (Logical maximum)
                Header
                    .... ..10 = bSize: 2 bytes (2)
                    .... 01.. = bType: Global (1)
                    0010 .... = bTag: Logical maximum (0x02)
                Logical maximum: 255
            Global item (Report size)
                Header
                    .... ..01 = bSize: 1 byte (1)
                    .... 01.. = bType: Global (1)
                    0111 .... = bTag: Report size (0x07)
                Report size: 8
            Global item (Report count)
                Header
                    .... ..01 = bSize: 1 byte (1)
                    .... 01.. = bType: Global (1)
                    1001 .... = bTag: Report count (0x09)
                Report count: 64
            Main item (Input)
                Header
                    .... ..01 = bSize: 1 byte (1)
                    .... 00.. = bType: Main (0)
                    1000 .... = bTag: Input (0x08)
                .... .... 0 = Data/constant: Constant
                .... ...1 . = Data type: Array
                .... ..0. . = Coordinates: Relative
                .... .0.. . = Min/max wraparound: Wrap
                .... 0... . = Physical relationship to data: Nonlinear
                ...0 .... . = Preferred state: No preferred state
                ..0. .... . = Has null position: Null state
                .0.. .... . = [Reserved]: False
                Bits or bytes: Buffered bytes (default, no second byte present)
            Local item (Usage minimum)
                Header
                    .... ..01 = bSize: 1 byte (1)
                    .... 10.. = bType: Local (2)
                    0001 .... = bTag: Usage minimum (0x01)
                Usage minimum: 0x01
            Local item (Usage maximum)
                Header
                    .... ..01 = bSize: 1 byte (1)
                    .... 10.. = bType: Local (2)
                    0010 .... = bTag: Usage maximum (0x02)
                Usage: Medical instruments (0x40)
            Main item (Output)
                Header
                    .... ..01 = bSize: 1 byte (1)
                    .... 00.. = bType: Main (0)
                    1001 .... = bTag: Output (0x09)
                .... .... 0 = Data/constant: Constant
                .... ...1 . = Data type: Array
                .... ..0. . = Coordinates: Relative
                .... .0.. . = Min/max wraparound: Wrap
                .... 0... . = Physical relationship to data: Nonlinear
                ...0 .... . = Preferred state: No preferred state
                ..0. .... . = Has null position: Null state
                .0.. .... . = (Non)-volatile: Volatile
                Bits or bytes: Buffered bytes (default, no second byte present)
            Main item (End collection)
                Header
                    .... ..00 = bSize: 0 bytes (0)
                    .... 00.. = bType: Main (0)
                    1100 .... = bTag: End collection (0x0c)

0000  40 25 17 39 01 88 ff ff 43 02 80 15 02 00 2d 00   @%.9....C.....-.
0010  5e 27 b7 4f 00 00 00 00 44 5c 08 00 00 00 00 00   ^'.O....D\......
0020  1d 00 00 00 1d 00 00 00 00 00 00 00 00 00 00 00   ................
0030  00 00 00 00 00 00 00 00 00 02 00 00 00 00 00 00   ................
0040  06 00 ff 09 01 a1 01 19 01 29 40 15 00 26 ff 00   .........)@..&..
0050  75 08 95 40 81 02 19 01 29 40 91 02 c0            u..@....)@...

No.     Time        Source                Destination           Protocol Info                                                            Length
     39 38.964293   host                  21.1                  USB      URB_INTERRUPT in                                                64

Frame 39: 64 bytes on wire (512 bits), 64 bytes captured (512 bits)
    Arrival Time: May 18, 2012 21:53:50.551383000 PDT
    Epoch Time: 1337403230.551383000 seconds
    [Time delta from previous captured frame: 0.003475000 seconds]
    [Time delta from previous displayed frame: 0.003475000 seconds]
    [Time since reference or first frame: 38.964293000 seconds]
    Frame Number: 39
    Frame Length: 64 bytes (512 bits)
    Capture Length: 64 bytes (512 bits)
    [Frame is marked: True]
    [Frame is ignored: False]
    [Protocols in frame: usb]
USB URB
    URB id: 0xffff880139172540
    URB type: URB_SUBMIT ('S')
    URB transfer type: URB_INTERRUPT (0x01)
    Endpoint: 0x81, Direction: IN
        1... .... = Direction: IN (1)
        .000 0001 = Endpoint value: 1
    Device: 21
    URB bus id: 2
    Device setup request: not relevant ('-')
    Data: not present ('<')
    URB sec: 1337403230
    URB usec: 551383
    URB status: Operation now in progress (-EINPROGRESS) (-115)
    URB length [bytes]: 64
    Data length [bytes]: 0

0000  40 25 17 39 01 88 ff ff 53 01 81 15 02 00 2d 3c   @%.9....S.....-<
0010  5e 27 b7 4f 00 00 00 00 d7 69 08 00 8d ff ff ff   ^'.O.....i......
0020  40 00 00 00 00 00 00 00 00 00 00 00 00 00 00 00   @...............
0030  01 00 00 00 00 00 00 00 00 02 00 00 00 00 00 00   ................

No.     Time        Source                Destination           Protocol Info                                                            Length
     40 54.355692   host                  21.0                  USB      GET DESCRIPTOR Request STRING                                   64

Frame 40: 64 bytes on wire (512 bits), 64 bytes captured (512 bits)
    Arrival Time: May 18, 2012 21:54:05.942782000 PDT
    Epoch Time: 1337403245.942782000 seconds
    [Time delta from previous captured frame: 15.391399000 seconds]
    [Time delta from previous displayed frame: 15.391399000 seconds]
    [Time since reference or first frame: 54.355692000 seconds]
    Frame Number: 40
    Frame Length: 64 bytes (512 bits)
    Capture Length: 64 bytes (512 bits)
    [Frame is marked: True]
    [Frame is ignored: False]
    [Protocols in frame: usb]
USB URB
    URB id: 0xffff88002ca5c600
    URB type: URB_SUBMIT ('S')
    URB transfer type: URB_CONTROL (0x02)
    Endpoint: 0x80, Direction: IN
        1... .... = Direction: IN (1)
        .000 0000 = Endpoint value: 0
    Device: 21
    URB bus id: 2
    Device setup request: relevant (0)
    Data: not present ('<')
    URB sec: 1337403245
    URB usec: 942782
    URB status: Operation now in progress (-EINPROGRESS) (-115)
    URB length [bytes]: 1026
    Data length [bytes]: 0
    [Response in: 41]
    [bInterfaceClass: HID (0x03)]
    URB setup
        bmRequestType: 0x80
            1... .... = Direction: Device-to-host
            .00. .... = Type: Standard (0x00)
            ...0 0000 = Recipient: Device (0x00)
        bRequest: GET DESCRIPTOR (6)
        Descriptor Index: 0x00
        bDescriptorType: STRING (3)
        Language Id: English (United States) (0x0409)
        wLength: 1026

0000  00 c6 a5 2c 00 88 ff ff 53 02 80 15 02 00 00 3c   ...,....S......<
0010  6d 27 b7 4f 00 00 00 00 be 62 0e 00 8d ff ff ff   m'.O.....b......
0020  02 04 00 00 00 00 00 00 80 06 00 03 09 04 02 04   ................
0030  00 00 00 00 00 00 00 00 00 02 00 00 00 00 00 00   ................

No.     Time        Source                Destination           Protocol Info                                                            Length
     41 54.355952   21.0                  host                  USB      GET DESCRIPTOR Response STRING                                  68

Frame 41: 68 bytes on wire (544 bits), 68 bytes captured (544 bits)
    Arrival Time: May 18, 2012 21:54:05.943042000 PDT
    Epoch Time: 1337403245.943042000 seconds
    [Time delta from previous captured frame: 0.000260000 seconds]
    [Time delta from previous displayed frame: 0.000260000 seconds]
    [Time since reference or first frame: 54.355952000 seconds]
    Frame Number: 41
    Frame Length: 68 bytes (544 bits)
    Capture Length: 68 bytes (544 bits)
    [Frame is marked: True]
    [Frame is ignored: False]
    [Protocols in frame: usb]
USB URB
    URB id: 0xffff88002ca5c600
    URB type: URB_COMPLETE ('C')
    URB transfer type: URB_CONTROL (0x02)
    Endpoint: 0x80, Direction: IN
        1... .... = Direction: IN (1)
        .000 0000 = Endpoint value: 0
    Device: 21
    URB bus id: 2
    Device setup request: not relevant ('-')
    Data: present (0)
    URB sec: 1337403245
    URB usec: 943042
    URB status: Success (0)
    URB length [bytes]: 4
    Data length [bytes]: 4
    [Request in: 40]
    [Time from request: 0.000260000 seconds]
    [bInterfaceClass: HID (0x03)]
    STRING DESCRIPTOR
        bLength: 4
        bDescriptorType: STRING (3)
        wLANGID: English (United States) (0x0409)

0000  00 c6 a5 2c 00 88 ff ff 43 02 80 15 02 00 2d 00   ...,....C.....-.
0010  6d 27 b7 4f 00 00 00 00 c2 63 0e 00 00 00 00 00   m'.O.....c......
0020  04 00 00 00 04 00 00 00 00 00 00 00 00 00 00 00   ................
0030  00 00 00 00 00 00 00 00 00 02 00 00 00 00 00 00   ................
0040  04 03 09 04                                       ....

No.     Time        Source                Destination           Protocol Info                                                            Length
     42 54.357652   host                  21.0                  USB      GET DESCRIPTOR Request STRING                                   64

Frame 42: 64 bytes on wire (512 bits), 64 bytes captured (512 bits)
    Arrival Time: May 18, 2012 21:54:05.944742000 PDT
    Epoch Time: 1337403245.944742000 seconds
    [Time delta from previous captured frame: 0.001700000 seconds]
    [Time delta from previous displayed frame: 0.001700000 seconds]
    [Time since reference or first frame: 54.357652000 seconds]
    Frame Number: 42
    Frame Length: 64 bytes (512 bits)
    Capture Length: 64 bytes (512 bits)
    [Frame is marked: True]
    [Frame is ignored: False]
    [Protocols in frame: usb]
USB URB
    URB id: 0xffff88002ca5c600
    URB type: URB_SUBMIT ('S')
    URB transfer type: URB_CONTROL (0x02)
    Endpoint: 0x80, Direction: IN
        1... .... = Direction: IN (1)
        .000 0000 = Endpoint value: 0
    Device: 21
    URB bus id: 2
    Device setup request: relevant (0)
    Data: not present ('<')
    URB sec: 1337403245
    URB usec: 944742
    URB status: Operation now in progress (-EINPROGRESS) (-115)
    URB length [bytes]: 1026
    Data length [bytes]: 0
    [Response in: 43]
    [bInterfaceClass: HID (0x03)]
    URB setup
        bmRequestType: 0x80
            1... .... = Direction: Device-to-host
            .00. .... = Type: Standard (0x00)
            ...0 0000 = Recipient: Device (0x00)
        bRequest: GET DESCRIPTOR (6)
        Descriptor Index: 0x01
        bDescriptorType: STRING (3)
        Language Id: English (United States) (0x0409)
        wLength: 1026

0000  00 c6 a5 2c 00 88 ff ff 53 02 80 15 02 00 00 3c   ...,....S......<
0010  6d 27 b7 4f 00 00 00 00 66 6a 0e 00 8d ff ff ff   m'.O....fj......
0020  02 04 00 00 00 00 00 00 80 06 01 03 09 04 02 04   ................
0030  00 00 00 00 00 00 00 00 00 02 00 00 00 00 00 00   ................

No.     Time        Source                Destination           Protocol Info                                                            Length
     43 54.357996   21.0                  host                  USB      GET DESCRIPTOR Response STRING                                  74

Frame 43: 74 bytes on wire (592 bits), 74 bytes captured (592 bits)
    Arrival Time: May 18, 2012 21:54:05.945086000 PDT
    Epoch Time: 1337403245.945086000 seconds
    [Time delta from previous captured frame: 0.000344000 seconds]
    [Time delta from previous displayed frame: 0.000344000 seconds]
    [Time since reference or first frame: 54.357996000 seconds]
    Frame Number: 43
    Frame Length: 74 bytes (592 bits)
    Capture Length: 74 bytes (592 bits)
    [Frame is marked: True]
    [Frame is ignored: False]
    [Protocols in frame: usb]
USB URB
    URB id: 0xffff88002ca5c600
    URB type: URB_COMPLETE ('C')
    URB transfer type: URB_CONTROL (0x02)
    Endpoint: 0x80, Direction: IN
        1... .... = Direction: IN (1)
        .000 0000 = Endpoint value: 0
    Device: 21
    URB bus id: 2
    Device setup request: not relevant ('-')
    Data: present (0)
    URB sec: 1337403245
    URB usec: 945086
    URB status: Success (0)
    URB length [bytes]: 10
    Data length [bytes]: 10
    [Request in: 42]
    [Time from request: 0.000344000 seconds]
    [bInterfaceClass: HID (0x03)]
    STRING DESCRIPTOR
        bLength: 10
        bDescriptorType: STRING (3)
        bString: AEBN

0000  00 c6 a5 2c 00 88 ff ff 43 02 80 15 02 00 2d 00   ...,....C.....-.
0010  6d 27 b7 4f 00 00 00 00 be 6b 0e 00 00 00 00 00   m'.O.....k......
0020  0a 00 00 00 0a 00 00 00 00 00 00 00 00 00 00 00   ................
0030  00 00 00 00 00 00 00 00 00 02 00 00 00 00 00 00   ................
0040  0a 03 41 00 45 00 42 00 4e 00                     ..A.E.B.N.

No.     Time        Source                Destination           Protocol Info                                                            Length
     44 54.359691   host                  21.0                  USB      GET DESCRIPTOR Request STRING                                   64

Frame 44: 64 bytes on wire (512 bits), 64 bytes captured (512 bits)
    Arrival Time: May 18, 2012 21:54:05.946781000 PDT
    Epoch Time: 1337403245.946781000 seconds
    [Time delta from previous captured frame: 0.001695000 seconds]
    [Time delta from previous displayed frame: 0.001695000 seconds]
    [Time since reference or first frame: 54.359691000 seconds]
    Frame Number: 44
    Frame Length: 64 bytes (512 bits)
    Capture Length: 64 bytes (512 bits)
    [Frame is marked: True]
    [Frame is ignored: False]
    [Protocols in frame: usb]
USB URB
    URB id: 0xffff88002ca5c600
    URB type: URB_SUBMIT ('S')
    URB transfer type: URB_CONTROL (0x02)
    Endpoint: 0x80, Direction: IN
        1... .... = Direction: IN (1)
        .000 0000 = Endpoint value: 0
    Device: 21
    URB bus id: 2
    Device setup request: relevant (0)
    Data: not present ('<')
    URB sec: 1337403245
    URB usec: 946781
    URB status: Operation now in progress (-EINPROGRESS) (-115)
    URB length [bytes]: 1026
    Data length [bytes]: 0
    [Response in: 45]
    [bInterfaceClass: HID (0x03)]
    URB setup
        bmRequestType: 0x80
            1... .... = Direction: Device-to-host
            .00. .... = Type: Standard (0x00)
            ...0 0000 = Recipient: Device (0x00)
        bRequest: GET DESCRIPTOR (6)
        Descriptor Index: 0x02
        bDescriptorType: STRING (3)
        Language Id: English (United States) (0x0409)
        wLength: 1026

0000  00 c6 a5 2c 00 88 ff ff 53 02 80 15 02 00 00 3c   ...,....S......<
0010  6d 27 b7 4f 00 00 00 00 5d 72 0e 00 8d ff ff ff   m'.O....]r......
0020  02 04 00 00 00 00 00 00 80 06 02 03 09 04 02 04   ................
0030  00 00 00 00 00 00 00 00 00 02 00 00 00 00 00 00   ................

No.     Time        Source                Destination           Protocol Info                                                            Length
     45 54.360594   21.0                  host                  USB      GET DESCRIPTOR Response STRING                                  126

Frame 45: 126 bytes on wire (1008 bits), 126 bytes captured (1008 bits)
    Arrival Time: May 18, 2012 21:54:05.947684000 PDT
    Epoch Time: 1337403245.947684000 seconds
    [Time delta from previous captured frame: 0.000903000 seconds]
    [Time delta from previous displayed frame: 0.000903000 seconds]
    [Time since reference or first frame: 54.360594000 seconds]
    Frame Number: 45
    Frame Length: 126 bytes (1008 bits)
